:020000040800F2
:1000000000A00020C1310008C1C10008C3C1000820
:10001000C5C10008C7C10008C9C100080000000030
:10002000000000000000000000000000CBC100083C
:10003000CDC1000800000000CFC10008F54B00084A
:1000400039320008393200083932000839320008E4
:1000500039320008393200083932000839320008D4
:1000600039320008393200083932000839320008C4
:1000700039320008393200088D5200083932000840
:100080003932000881550008393200083932000839
:10009000D1C100083932000839320008393200086D
:1000A00039320008893F0008B14700088141000843
:1000B0003932000839320008393200083932000874
:1000C0003932000839320008393200083932000864
:1000D00039320008854700083932000859470008BE
:1000E0003932000839320008D5C100083932000819
:1000F0003932000839320008393200083932000834
:10010000000000000000000000000000393200087C
:100110003932000839320008393200083932000813
:100120003932000839320008393200083932000803
:1001300039320008393200080000000000000000D9
:100140003932000839320008393200080000000056
:10015000000000000000000000000000000000009F
:1001600000000000000000003932000839320008A9
:10017000393200080000000000000000000000000C
:08018000000000003932000804
:1001880010B5054C237833B9044810B10448AFF3CF
:1001980000800121217010BDB00B0020000000007C
:1001A8008008020808B5064B1BB106480649AFF39C
:1001B80000800648016811B1054A02B1904708BDA0
:1001C8000000000080080208B40B0020B00B0020DB
:1001D8000000000081F0004102E000BF83F000430E
:1001E80030B54FEA41044FEA430594EA050F08BFCA
:1001F80090EA020F1FBF54EA000C55EA020C7FEA8E
:10020800645C7FEA655C00F0E2804FEA5454D4EB0A
:100218005555B8BF6D420CDD2C4480EA020281EAD4
:10022800030382EA000083EA010180EA020281EA0C
:100238000303362D88BF30BD11F0004F4FEA01315E
:100248004FF4801C4CEA113102D0404261EB41016D
:1002580013F0004F4FEA03334CEA133302D05242F3
:1002680063EB430394EA050F00F0A780A4F10104AF
:10027800D5F1200E0DDB02FA0EFC22FA05F28018E9
:1002880041F1000103FA0EF2801843FA05F35941CF
:100298000EE0A5F120050EF1200E012A03FA0EFC4E
:1002A80028BF4CF0020C43FA05F3C01851EBE37178
:1002B80001F0004507D54FF0000EDCF1000C7EEB95
:1002C80000006EEB0101B1F5801F1BD3B1F5001FD3
:1002D8000CD349085FEA30004FEA3C0C04F10104F2
:1002E8004FEA445212F5800F80F09A80BCF1004F1B
:1002F80008BF5FEA500C50F1000041EB045141EA9D
:10030800050130BD5FEA4C0C404141EB010111F49D
:10031800801FA4F10104E9D191F0000F04BF014648
:100328000020B1FA81F308BF2033A3F10B03B3F126
:1003380020020CDA0C3208DD02F1140CC2F10C02B6
:1003480001FA0CF021FA02F10CE002F11402D8BF14
:10035800C2F1200C01FA02F120FA0CFCDCBF41EAE0
:100368000C019040E41AA2BF01EB0451294330BDAF
:100378006FEA04041F3C1CDA0C340EDC04F114048C
:10038800C4F1200220FA04F001FA02F340EA030063
:1003980021FA04F345EA030130BDC4F10C04C4F1A9
:1003A800200220FA02F001FA04F340EA0300294689
:1003B80030BD21FA04F0294630BD94F0000F83F4D3
:1003C800801306BF81F480110134013D4EE77FEAB6
:1003D800645C18BF7FEA655C29D094EA050F08BF02
:1003E80090EA020F05D054EA000C04BF19461046E3
:1003F80030BD91EA030F1EBF0021002030BD5FEA27
:10040800545C05D14000494128BF41F0004130BD4E
:1004180014F580043CBF01F5801130BD01F00045A2
:1004280045F0FE4141F470014FF0000030BD7FEA15
:10043800645C1ABF194610467FEA655C1CBF0B4610
:10044800024650EA013406BF52EA033591EA030F27
:1004580041F4002130BD00BF90F0000F04BF00211F
:10046800704730B54FF4806404F132044FF0000552
:100478004FF0000150E700BF90F0000F04BF0021CB
:10048800704730B54FF4806404F1320410F0004531
:1004980048BF40424FF000013EE700BF42004FEA2C
:1004A800E2014FEA31014FEA02701FBF12F07F43A9
:1004B80093F07F4F81F06051704792F0000F14BFA6
:1004C80093F07F4F704730B54FF4607401F00045EA
:1004D80021F0004120E700BF50EA010208BF704741
:1004E80030B54FF000050AE050EA010208BF704736
:1004F80030B511F0004502D5404261EB41014FF49F
:10050800806404F132045FEA915C3FF4DCAE4FF0A2
:1005180003025FEADC0C18BF03325FEADC0C18BF89
:10052800033202EBDC02C2F1200300FA03FC20FADA
:1005380002F001FA03FE40EA0E0021FA02F1144427
:10054800C1E600BF70B54FF0FF0C4CF4E06C1CEA3C
:1005580011541DBF1CEA135594EA0C0F95EA0C0FB1
:1005680000F0DEF82C4481EA030621EA4C5123EA24
:100578004C5350EA013518BF52EA033541F4801153
:1005880043F4801338D0A0FB02CE4FF00005E1FB06
:1005980002E506F00042E0FB03E54FF00006E1FB50
:1005A80003569CF0000F18BF4EF0010EA4F1FF0493
:1005B800B6F5007F64F5407404D25FEA4E0E6D41D3
:1005C80046EB060642EAC62141EA55514FEAC520E4
:1005D80040EA5E504FEACE2EB4F1FD0C88BFBCF560
:1005E800E06F1ED8BEF1004F08BF5FEA500E50F111
:1005F800000041EB045170BD06F0004646EA0101D7
:1006080040EA020081EA0301B4EB5C04C2BFD4EB08
:100618000C0541EA045170BD41F480114FF0000E01
:10062800013C00F3AB8014F1360FDEBF002001F06F
:10063800004170BDC4F10004203C35DA0C341BDCE9
:1006480004F11404C4F1200500FA05F320FA04F0BB
:1006580001FA05F240EA020001F0004221F00041EF
:1006680010EBD37021FA04F642EB06015EEA430E62
:1006780008BF20EAD37070BDC4F10C04C4F1200592
:1006880000FA04F320FA05F001FA04F240EA020045
:1006980001F0004110EBD37041F100015EEA430E16
:1006A80008BF20EAD37070BDC4F1200500FA05F236
:1006B8004EEA020E20FA04F301FA05F243EA0203B5
:1006C80021FA04F001F0004121FA04F220EA0200C4
:1006D80000EBD3705EEA430E08BF20EAD37070BD0A
:1006E80094F0000F0FD101F00046400041EB0101EA
:1006F80011F4801F08BF013CF7D041EA060195F0CC
:10070800000F18BF704703F00046520043EB030385
:1007180013F4801F08BF013DF7D043EA0603704772
:1007280094EA0C0F0CEA135518BF95EA0C0F0CD07D
:1007380050EA410618BF52EA4306D1D181EA0301C3
:1007480001F000414FF0000070BD50EA410606BFBD
:100758001046194652EA430619D094EA0C0F02D102
:1007680050EA013613D195EA0C0F05D152EA033647
:100778001CBF104619460AD181EA030101F0004165
:1007880041F0FE4141F470014FF0000070BD41F0AE
:10079800FE4141F4780170BD70B54FF0FF0C4CF488
:1007A800E06C1CEA11541DBF1CEA135594EA0C0FA7
:1007B80095EA0C0F00F0A7F8A4EB050481EA030EF4
:1007C80052EA03354FEA013100F088804FEA0333DB
:1007D8004FF0805545EA131343EA12634FEA0222A9
:1007E80045EA111545EA10654FEA00260EF000416A
:1007F8009D4208BF964244F1FD0404F5407402D2BC
:100808005B084FEA3202B61A65EB03055B084FEA4C
:1008180032024FF480104FF4002CB6EB020E75EB49
:10082800030E22BFB61A754640EA0C005B084FEA71
:100838003202B6EB020E75EB030E22BFB61A7546EE
:1008480040EA5C005B084FEA3202B6EB020E75EB39
:10085800030E22BFB61A754640EA9C005B084FEAB1
:100868003202B6EB020E75EB030E22BFB61A7546BE
:1008780040EADC0055EA060E18D04FEA051545EAAD
:1008880016754FEA06164FEAC30343EA52734FEA56
:10089800C2025FEA1C1CC0D111F4801F0BD141EACF
:1008A80000014FF000004FF0004CB6E711F4801F34
:1008B80004BF01430020B4F1FD0C88BFBCF5E06F14
:1008C8003FF6AFAEB5EB030C04BFB6EB020C5FEA24
:1008D800500C50F1000041EB045170BD0EF0004E79
:1008E8004EEA113114EB5C04C2BFD4EB0C0541EAAB
:1008F800045170BD41F480114FF0000E013C90E6A8
:1009080045EA060E8DE60CEA135594EA0C0F08BF6B
:1009180095EA0C0F3FF43BAF94EA0C0F0AD150EA6A
:1009280001347FF434AF95EA0C0F7FF425AF1046FD
:1009380019462CE795EA0C0F06D152EA03353FF425
:10094800FDAE1046194622E750EA410618BF52EAA2
:1009580043067FF4C5AE50EA41047FF40DAF52EA76
:1009680043057FF4EBAE12E74FF0FF3C06E000BF13
:100978004FF0010C02E000BF4FF0010C4DF804CD20
:100988004FEA410C7FEA6C5C4FEA430C18BF7FEAE0
:100998006C5C1BD001B050EA410C0CBF52EA430C0E
:1009A80091EA030F02BF90EA020F0020704710F18E
:1009B800000F91EA030F58BF994208BF90422CBF1D
:1009C800D8176FEAE37040F0010070474FEA410C16
:1009D8007FEA6C5C02D150EA013C07D14FEA430C34
:1009E8007FEA6C5CD6D152EA033CD3D05DF8040BA5
:1009F800704700BF8446104662468C4619466346D7
:100A080000E000BF01B5FFF7B7FF002848BF10F1AD
:100A1800000F01BD4DF808EDFFF7F4FF0CBF0120F2
:100A280000205DF808FB00BF4DF808EDFFF7EAFF6E
:100A380034BF012000205DF808FB00BF4DF808ED29
:100A4800FFF7E0FF94BF012000205DF808FB00BF1E
:100A58004DF808EDFFF7CEFF94BF012000205DF8A8
:100A680008FB00BF4DF808EDFFF7C4FF34BF0120B5
:100A780000205DF808FB00BF4FEA410212F50012A2
:100A880015D211D56FF47873B3EB625212D94FEACD
:100A9800C12343F0004343EA505311F0004F23FAB7
:100AA80002F018BF404270474FF00000704750EA0C
:100AB800013005D111F0004008BF6FF000407047C9
:100AC8004FF00000704700BF4FEA4102B2F1E04327
:100AD80024BFB3F5001CDCF1FE5C0DD901F0004C1D
:100AE8004FEAC0024CEA5070B2F1004F40EB83006D
:100AF80008BF20F00100704711F0804F21D113F199
:100B08003872BCBF01F00040704741F480114FEAD1
:100B18005252C2F11802C2F1200C10FA0CF320FA5A
:100B280002F018BF40F001004FEAC1234FEAD32377
:100B380003FA0CFC40EA0C0023FA02F34FEA4303E1
:100B4800CCE77FEA625307D150EA01331EBF4FF06A
:100B5800FE4040F44000704701F0004040F0FE4085
:100B680040F40000704700BF4BB942B9002908BFE4
:100B7800002802D04FF0FF31084600F037B882B0A5
:100B8800EC462DE9005000F01BF8DDF804E002B057
:100B98000CBC7047F8B5164604460D461F4600F0D3
:100BA80027F806FB01F300FB0737A6FB0023FB1819
:100BB800A21A65EB0303069CC4E90023F8BD00BF35
:100BC800F8B5164604460D461F4600F06FF900FBBF
:100BD80007F7A0FB062306FB0177FB18A21A65EBB3
:100BE8000303069CC4E90023F8BD00BF704700BF9B
:100BF80000292DE9F00F1D46C0F29D800024002D2C
:100C0800C0F2948080460F4694461E46E3BB8A4253
:100C180055D9B2FA82F747B1C7F1200520FA05F68F
:100C280001FA07F1BA403143B840170CB1FBF7F6A7
:100C3800030C1FFA82FC07FB16110CFB06F543EAAE
:100C480001439D4208D9711E9B1880F013819D4273
:100C580040F21081023E9B18591BB1FBF7F507FBC8
:100C6800151380B20CFB05FC40EA03418C4507D9FB
:100C78006B1E8A1880F00081944540F2FD80023D89
:100C880045EA0641002503E08B420CD90025294698
:100C98000A462B4614B1524263EB430310461946E9
:100CA800BDE8F00F7047B3FA83F5002D40F0878058
:100CB8008B4201D38242EAD800250121E8E712B924
:100CC8000126B6FBF2F2B2FA82F6002E39D18E1A5C
:100CD800130C1FFA82FC0125B6FBF3F703FB17611F
:100CE8004FEA10490CFB07F849EA0146B04506D916
:100CF800791EB61802D2B04500F2D3800F46C8EB71
:100D08000606B6FBF3F103FB116380B20CFB01FC92
:100D180040EA03439C4506D94E1E9A1802D29445D0
:100D280000F2C280314641EA0741B1E7E44352424A
:100D380063EB430366E7404261EB41014FF0FF3448
:100D48005DE7B240C6F1200921FA09F720FA09F552
:100D5800130C01FA06F1B7FBF3F845EA01091FFA8B
:100D680082FC03FB18774FEA19410CFB08F541EAAE
:100D78000747B040BD420AD9BF1808F1FF3680F0D6
:100D88008E80BD4240F28B80A8F10208BF18791B03
:100D9800B1FBF3F503FB15171FFA89F90CFB05F6F0
:100DA80049EA07418E4206D96F1E891871D28E42D0
:100DB8006FD9023D89188E1B45EA08458CE7C5F1B5
:100DC800200122FA01F306FA05F61E4327FA01F27A
:100DD8004FEA164907FA05F720FA01F1B2FBF9F8CC
:100DE8000F433B0C1FFA86FA09FB18220AFB08FB83
:100DF80043EA024293450CFA05FC08D9921908F116
:100E0800FF314AD2934548D9A8F102089219CBEB91
:100E18000203B3FBF9F109FB1132BFB20AFB01FA75
:100E280047EA02439A4506D94A1E9B1933D29A4586
:100E380031D902399B1941EA08410F0C1FFA8CF885
:100E480008FB07F68AB24FEA1C4C08FB02F80CFBB9
:100E5800026202EB18420CFB07FC964288BF0CF5B5
:100E6800803CCAEB03030CEB124C63450ED305D050
:100E780000250DE70E46EFE61D4601E71FFA88F844
:100E880000FA05F008EB0245A842F1D20139002525
:100E9800FEE63D468FE71146CDE78846B7E7B04600
:100EA80075E7023FB6182AE702393CE72DE9F00753
:100EB800144605460E46002B3DD18A4249D9B2FA5E
:100EC80082F747B1C7F1200120FA01F206FA07F6C6
:100ED800BC401643BD40220CB6FBF2F02F0CA1B269
:100EE80002FB106601FB00F347EA0646B34208D945
:100EF800471E361980F0F880B34240F2F580023878
:100F08003619F61AB6FBF2F302FB1362ADB201FB17
:100F180003F145EA0242914207D95E1E121980F098
:100F2800E580914240F2E280023B43EA0040002122
:100F3800BDE8F00770478B4243D8B3FA83F4002C1E
:100F480042D18B4202D3824200F2DF80002101208D
:100F5800EEE712B90127B7FBF2F4B4FA84F2002ADB
:100F680040F088800A1B230CA7B20121B2FBF3F6DC
:100F780003FB16224FEA154C07FB06F04CEA024227
:100F8800904207D9121906F1FF3C02D2904200F2B2
:100F9800CE806646121AB2FBF3F003FB1023ADB203
:100FA80007FB00F745EA03439F4207D9421E1B1976
:100FB80080F09E809F4240F29B80023840EA0640C3
:100FC800B6E700210846B3E7C4F1200622FA06F581
:100FD80003FA04F32B434FEA134C21FA06F501FAFE
:100FE80004F120FA06F6B5FBFCF746EA010A1FFAF7
:100FF80083F80CFB17554FEA1A4108FB07F941EA39
:101008000545A94502FA04F203D97E1EED187FD3DF
:101018003746C9EB0501B1FBFCF60CFB16151FFAA8
:101028008AFA08FB06F84AEA0541884503D9751E7D
:10103800C91873D32E4646EA0746370C1FFA82FCB6
:101048000CFB07F5120CB3B20CFB03FC02FB0353B9
:1010580003EB1C4302FB07F29D4288BF02F5803276
:10106800C8EB010102EB134291424BD342D0304608
:1010780000215DE79440C2F1200521FA05F6230C12
:1010880020FA05F701FA02F1B6FBF3FC39430D0C1F
:10109800A7B203FB1C6645EA064607FB0CF8B045F9
:1010A80000FA02F508D936190CF1FF303DD2B045E7
:1010B8003BD9ACF1020C3619C8EB0602B2FBF3F0CF
:1010C80003FB10268AB242EA064207FB00F191426E
:1010D80006D9461E121926D2914224D9023812196D
:1010E800521A40EA0C4141E738460AE733461CE702
:1010F800104663E71FFA8CFC00FA04F00CEB03437C
:101108009842B4D2701E002112E7214620460FE70C
:10111800A9457FF67DAF023FED187AE7884589D962
:10112800023EC91887E73046DAE78446C4E7023E3C
:1011380012192FE770B50821064601200DF020FB93
:10114800044618B90B480EF04BFE11E00136B60004
:1011580030460EF0ABF80546206028B130460EF058
:10116800A5F80546606018B902480EF039FE2C460D
:10117800204670BD9496010870B5482105460120A7
:101188000DF0FEFA044618B914480EF029FE22E0C4
:101198000135AD0028460EF089F80646A06258B120
:1011A80028460EF083F80646E06228B128460EF07D
:1011B8007DF80646206320B908480EF011FE344633
:1011C80009E028460EF072F80546606318B903482E
:1011D8000EF006FE2C46204670BD00BFC5960108DD
:1011E80038B50C21054601200DF0CAFA0446681CE2
:1011F800850028460EF05AF8206028460EF056F86A
:10120800606028460EF052F8A060204638BD10B540
:101218000446806A18B10EF051F80023A362E06A10
:1012280018B10EF04BF80020E062206B18B10EF0F8
:1012380045F800212163606B18B10EF03FF80022D9
:10124800626320460EF03AF8012010BD10B504463E
:10125800006818B10EF032F800232360606818B1F6
:101268000EF02CF80020606020460EF027F80120D0
:1012780010BD10B50446006818B10EF01FF8002321
:101288002360606818B10EF019F800206060A0684B
:1012980018B10EF013F80021A16020460EF00EF8E8
:1012A800012010BD0000000090ED017AD0ED007A19
:1012B80027EE070A07EEA70A836870B5C1ED047A1E
:1012C80081ED057A8B61044610EE100A0E46FFF791
:1012D800E5F841EC100B13F04DFC51EC100BFFF747
:1012E800F3FB94ED021A00EE900A61EE011A40EE4B
:1012F800A01AF06011EE900AFFF7D0F841EC100B3D
:1013080013F038FC51EC100BFFF7DEFBB06070698E
:10131800FFF7C4F8044630690D46FFF7BFF845ECFF
:10132800104B41EC110B13F06FFA13A3D3E9002310
:1013380051EC100BFFF706F9FFF7C6FB3060B069F8
:10134800FFF7ACF80446F0680D46FFF7A7F845EC40
:10135800104B41EC110B13F057FA07A3D3E9002304
:1013680051EC100BFFF7EEF8FFF7AEFB70600120B1
:1013780070BD00BFAFF30080F8C1631ADCA54C4014
:10138800F0B5D0ED056A90ED047A66EEA07A47EEE6
:10139800007A2DED068B90ED038A90ED06AAC7EE34
:1013A800889A064685B04AEE017AD0ED028AB0EEF8
:1013B800419A86ED0E1A87EEA81A80ED0C0A26EEE1
:1013C800800A17EE200A80ED0A1AC0ED0D0AC0ED5A
:1013D8000B9A10EE100AFFF761F81DA3D3E900235A
:1013E800FFF7B0F868EE080A044610EE900A0D46BA
:1013F800FFF754F86AEE299A02460B46204629461A
:10140800FFF7CAF958EE099AFFF75EFB0746306204
:1014180019EE900AFFF742F80DA3D3E90023FFF76E
:1014280091F868EEA88A044618EE900A0D46FFF770
:1014380035F802460B4620462946FFF7ADF9FFF777
:1014480043FBF7637062012005B0BDEC068BF0BD6D
:10145800F8C1631ADCA54C4084B02DE970432DED2A
:10146800068B0CAC84E80F001398179EFFF716F84C
:1014780058A3D3E90023FFF765F841EC100B41ECC2
:10148800180B12F099FF59EC108BB0EE480AF0EEE9
:10149800680A13F085F851EC100BFFF715FBDDED2A
:1014A8000F9A08EE100A0C98FEF7F8FF69EE887A92
:1014B800044627EE880A0D4610EE100AFEF7EEFFE6
:1014C80002460B4600204249FEF788FE41EC100B0D
:1014D8009DED149A13F04EFB204653EC102B294631
:1014E800FFF75AF9FFF7F0FA49460AEE100A4046A4
:1014F800FFF7EAFA7AEE098A00EE900A1AEE100A65
:1015080068EEA08AFEF7CAFF044619EE900A0D4657
:10151800FEF7C4FF02460B4600202D49FEF75EFE8B
:1015280002460B4620462946FFF70CF8044619EEFA
:10153800100A0D46FEF7B2FF02460B462046294622
:10154800FEF74EFE044618EE100A0D46FEF7A6FFFB
:1015580002460B4620462946FEF7F4FFFFF7B4FA89
:1015680008EE100A28EE081A08EEA81A11EE100A5A
:10157800FEF794FF41EC100B13F0FCFA51EC100B42
:10158800FFF7A2FA01EE900A88EE218AB06018EE01
:10159800100AFEF783FF41EC100B13F0D7F80AA3EB
:1015A800D3E9002351EC100BFEF7CCFFFFF78CFAC0
:1015B800129B706033600120BDEC068BBDE8704360
:1015C80004B07047AFF30080F8C1631ADCA54C4043
:1015D8000000F03F399D52A246DF913FAFF30080F3
:1015E80084B02DE9F04F2DED048B89B016AC84E85A
:1015F8000F0011EE900A12EE905AB0EE429AB0EE39
:10160800608AFEF74BFFDDED177A38EE670A8046F1
:1016180010EE100A8946FEF741FF2DA3D3E90023F7
:10162800FEF790FFFFF750FAFEF738FF41EC100B7A
:1016380041EC180B12F0B4FF28465BEC10ABFEF738
:101648002DFFB0EE480AF0EE680A04460D4612F087
:10165800B3FE52465B464046494657EC106BFEF7D0
:1016680071FF3246CDE900013B4620462946FEF788
:1016780069FF02460B46DDE90001FEF7B1FDFFF701
:1016880023FA1B9B3246986049463B464046FEF784
:1016980059FF524606460F465B4620462946FEF746
:1016A80051FF02460B4630463946FEF797FDFFF7D5
:1016B8000BFA1B9C206084ED019A012009B0BDEC57
:1016C800048BBDE8F04F04B0704700BFAFF3008053
:1016D800399D52A246DF913F84B070B52DED048B41
:1016E80084B00CAC84E80F0010EE100AF0EE419ABA
:1016F8008DED031A8DED010ACDED020AFEF7CEFE3F
:1017080035A3D3E90023FEF71DFF41EC100B41EC94
:10171800180B12F051FE51EC100BFFF7D5F9B0EE93
:10172800480AF0EE680A09EE100A12F039FF51EC87
:10173800100BFFF7C9F99DED111A81EE293A139C98
:10174800129D2168012307EE900A23EE037AA1EC8B
:10175800017AAB4207DC51ED013A23EE834A0133AB
:10176800A1EC014AF5E762684FF07E53136017EE6B
:10177800900AA36819EE106A0021196042F8046FF4
:1017880043F8040F11461C46022004310433A842D2
:1017980019DC13ED010A51ED016A67EE800A59EE72
:1017A800260A013010EE906A42F8046F13ED012A00
:1017B80051ED011A69EE022A47EEA12A12EE906A4B
:1017C80044F8046FE1E7012004B0BDEC048BBDE8E8
:1017D800704004B0704700BF399D52A246DF913F68
:1017E8002DE9F04F2DED048BF0EEC07AB7EE009A9C
:1017F80085B0F4EE497AF1EE10FA02900391B0EE5A
:10180800408A904604D1C7480EF0EAFA0020C0E1A9
:1018180002F1010302F102045C43022094FBF0F19F
:101828004C1C04FA00F420460DF040FD834680B1BC
:1018380020460DF03BFD814658B120460DF036FD9F
:10184800824630B14FEA48060136A9F10407002460
:1018580001E0B548D8E7B44213DC08EE904AF8EE48
:10186800E80A013410EE900AFEF718FE41EC100B5E
:1018780013F080F951EC100BFFF726F947F8040F25
:10188800E9E7022309F108011A4643454FDC571CD2
:10189800BE005D005F1E681E00EE903A06EE107AEC
:1018A80008EE900AB8EEE03AF8EEC66AF8EEE87A82
:1018B80086EE831A0BEB06044FEA820E56440BEBB6
:1018C8000E050195D6440D46012087EE835A86ED14
:1018D800001A84ED005A0C4616EE10CA461C043451
:1018E800844500EB02071EDD55ED023A14ED014A6E
:1018F800D4ED001A63EE844A87EEA17ADDF804C0BD
:10190800B0000CEB0007704484EEA10A15ED012A23
:10191800C7EE022A043DC0EE025AC7ED002AC0ED08
:10192800005A3046D8E7BA1C01330431ADE718EE47
:10193800100AFEF7B3FD04460D4622462B4600204A
:101948007A49FEF74BFC002206460F4620462946F8
:10195800764BFEF745FC02460B4630463946FEF705
:10196800F1FD41EC100B13F005F9DFED718A029CD3
:10197800039D84ED009A51EC100BC5ED008AB8F177
:10198800000F00F00581FFF79FF807EE900A84ED3D
:10199800018AF0EE485A686002230121B7EE000A76
:1019A800434529DCC9188A000BEB0204D4ED006A10
:1019B8000AEB0205D5ED001A28EE261A20EE212A98
:1019C80011EE252AF0EE653A07EE103A48EE423A53
:1019D800F8EEC72A029E039C22EEA34AB018C4EE72
:1019E800274AA218013380ED002AB0EE650AC2ED3D
:1019F800004AF0EE425AD3E789EE287A09F10C0141
:101A080001230022D9ED026A66EEA86A984540F3E0
:101A18009180D1ED005A51ED013A66EEA52A27EEE4
:101A2800277AC2EEA36AD7187A1C029D039C9000FD
:101A38002E182718D018441C03988C4605EE103A27
:101A480026EE874AB8EEC56A86EEA55A0133C4EE7B
:101A5800254A68EE251A03EE903A26EE080AB8EEF3
:101A6800E34A21EE856AC6ED004A60EE240A26EEB6
:101A7800072A68EE044A65EE072A24EE820A12EE67
:101A8800A50A80EEA73A2E46C0EE275AB1EE431AB1
:101A980087ED001AA700ED19C71985ED002A581C13
:101AA800C7ED005A09F10407404539DC2418A500A0
:101AB8000BEB050EDEED000A0AEB050696ED001AA3
:101AC80028EE203A029E65EE011A53EE061A06EB3E
:101AD800050E04EE900A039E0CF1040C75190437E8
:101AE8006646B8EEE40AD6ED002A97ED005A21EED4
:101AF800872A60EE085A62EE853A26EE074A65EEB6
:101B0800820A53EE840A8EED002A80EEA73A3E46FA
:101B18000130B0EE465A85ED003AB0EE616AC3E78F
:101B2800083173E7FBB901083B9901080000F03F51
:101B38000000000009EBC80393ED006A86EE860AF0
:101B4800B8F1010FACBF424401320132029C039D3F
:101B5800900021182A18584603EE108A27EE277A93
:101B6800B8EEC31A60EE070A21EE488AC1ED000AF2
:101B780068EE201A81EEA72A82ED002A0DF09EFB5E
:101B880048460DF09BFB50460DF098FB012000E005
:101B9800404605B0BDEC048BBDE8F08F2DE9F04F51
:101BA8002DED028B002389B04FF07E5AC0F800A0BB
:101BB80080460B6010EE100AB0EE408A019289460A
:101BC800FEF76CFC04460D4622462B460020B04921
:101BD800FEF704FB00220F460646AD4B2046294679
:101BE800FEF7FEFA02460B4630463946FEF7AAFCD7
:101BF80041EC100B12F0BEFF51EC100BFEF764FF26
:101C0800019A08EE900A0198971C411C4F43022341
:101C180097FBF3F0013000FA03F00DF047FB06EEF6
:101C280010AA074620B99B480EF0DAF8384629E191
:101C380001252B46019EB34200F3A3805C1C02944D
:101C48005C1E022003FB04F696FBF0F1CA18511E35
:101C580001FA00F109EB010208EB010A04FB04F1A7
:101C680006910299059201FB03FBAA1E9BFBF0FE5D
:101C78006A4300EE102A0EFA00F2761008EB020012
:101C880009EB02016FF0030202FB0EFBB2009E1E7D
:101C980066430092721096000496002293420FD178
:101CA800DAED001A28EEA12A059E80ED002A9AEDA9
:101CB800003AD6ED002A28EE034A08EEA24A56E07A
:101CC800012B0CD1002A54D1D8ED000A28EE201A95
:101CD80080ED001A99ED007AD8ED007A14E048DD1D
:101CE800944216DC009E00EB0B0C0CEB060E9EEDEE
:101CF800005A68EE055A01EB0B0CC0ED005A664419
:101D080096ED007ADEED007A28EEA74A18EE074A2B
:101D18002DE0069E02FB126607EE906AB8EEC01A26
:101D2800F8EEE70A009EC0EE811A00EB0B0E0EEBF0
:101D3800060C049EB644009EDEED002A9CED002AA7
:101D480021EEA23A18EE023A01EB0B0E80ED003AB2
:101D58007644DCED003AD6ED006A049E28EEA34AEC
:101D680018EE264AB644DEED004A01EEE44A81ED5B
:101D7800004A0132043004319A428FDD0235029B59
:101D880058E787ED006A012601998E4252DC06F178
:101D9800010B0BFB06FC4FEA6C04711E07EB840079
:101DA800714374004A10611E01EE901A07EB82031A
:101DB800D3ED002AB8EEE12A06EE906A22EE223A26
:101DC800F8EEE63A044683EE234A4FF0010A80ED26
:101DD800004A2068FEF762FBBAF1010F14BF012226
:101DE8000222CDE90201CAEB0B0050430AEB0603BD
:101DF80004EE900A05EE903AB8EEE45AB8EEE56AB9
:101E08000AF1010A85EE067A17EE100AFEF746FB7C
:101E180041EC100B12F0AEFEDDE9020153EC102B81
:101E2800FEF790FBFEF750FEB24544F8040FD0DDF4
:101E38005E46A9E70123019EB3421FDC5C1C04FB3C
:101E480003F56A10960008EB060009EB0601BD19B8
:101E5800002205EB820690ED007AD6ED007A27EE97
:101E6800270A0132A0EC010AD1ED000A20EEE71A98
:101E78009A42A1EC011AECDD2346DCE738460DF066
:101E88001DFA012009B0BDEC028BBDE8F08F00BF40
:101E98000000F03F5D990108C0B52DED028B0746A3
:101EA80085B010EE900A0E46FEF7F8FA1FA3D3E9A4
:101EB8000023FEF747FB41EC100B12F071FB51ECCD
:101EC800100BFEF701FE102F08EE100A11DDF0EEE0
:101ED800C87A17EE900AFEF7E1FA02460B46002090
:101EE8001149FEF77BF90EA3D3E90023FEF79CFD09
:101EF80038B196E80300B0EE480A3A46FFF74EFEBE
:101F080006E096E80300B0EE480A3A46FFF768FC98
:101F1800003018BF012005B0BDEC028BC0BD00BF6A
:101F2800BBBDD7D9DF7CDB3D0000F03F399D52A215
:101F380046DF913FAFF300802DE9F04F2DED048B84
:101F4800074689B008A800E90E00F96B4A1C900002
:101F58008DED020ACDED030A8DED041A0DF0A6F9F8
:101F6800064620B95C480DF03BFF3046A8E0169CB9
:101F780000230546B7EE008A6360A5EC018A039842
:101F8800FEF78CFA52A3D3E90023FEF7DBFA41EC03
:101F9800100B12F005FB51EC100BFEF795FD09EE46
:101FA800100A0124F86B844200F3868004F10109C9
:101FB8004FEA440A01EE909A00EE90AAB8EEE12AA0
:101FC800B8EEE01A0AF1FF38C1EE022A022109FB35
:101FD80004FB9BFBF1F202F1010B06EE908A07EE7F
:101FE800104AF8EEE67AB8EEC70A28EE278A12EE0B
:101FF800900A88EE008AFEF751FA41EC100B12F0B5
:10200800B9FD53EC102B18EE100A8DED010A009360
:10201800FEF744FA019A009BFEF794FAFEF754FD86
:10202800012C03EE100A02D1316871601AE0631EB8
:102038005B43AAF1030A581E0AFB08FA04EE100AC9
:1020480008EE90AAB8EEC46AF8EEE88A15ED025ACE
:10205800C6EE284A55ED013A64EE855A59EE235AE0
:10206800C5ED005A3B6B059A07994FEA8B0B02EBBB
:10207800840403EB0B007A6B90ED000A069802EBE0
:102088000B03D3ED000AD0ED017AD1ED016A20EE01
:10209800A71A10EE261AD4ED001AB5EC017A169C90
:1020A80021EE212AD4ED013A62EE072A42EE833A64
:1020B800C4ED013A4C4675E730460DF0FFF80120B3
:1020C80009B0BDEC048BBDE8F08F00BFAFF3008012
:1020D800399D52A246DF913FA7980108AFF30080CF
:1020E80082B02DE9F04F2DED028B89B00D4614A971
:1020F80081E80C00159B1699179C03930491012302
:1021080000218DED050ACDED060A8DED071AD5F8EB
:102118003CE02B64A160616021600432734577DC88
:102128005E1C06FB03F8022707EE106A98FBF7F817
:10213800049E039F002102910299043704369942B4
:1021480064DC029901EB080C296B4FEA8C0C01EB5B
:102158000C09696B01EB0C0ADAED005A56ED010A1D
:1021680099ED000A57ED016A25EEA01A00EE261A2D
:10217800D2ED001A016821EE212AF8EEC72A01EBF8
:102188000C0BDBED003A22EE223A94ED024A03EE04
:10219800634ADDED026A84ED024A17ED016A9AEDA1
:1021A800008AD9ED004A16ED015A68EE067A54EE17
:1021B800857A92ED000AF8EEE60A67EE805ADBEDC2
:1021C800001A94ED012A25EEA01A416801EE212A91
:1021D8008C4484ED012ADAED003A16ED014AD9ED76
:1021E800002A17ED013A63EE844A42EE834A92EDE3
:1021F800005A9CED006AD4ED007A24EE858A029993
:1022080048EE467A0131C4ED007A94E7013384E759
:102218000698FEF743F91CA3D3E90023FEF792F9C9
:1022280041EC100B12F0C8F851EC100BFEF74CFC07
:1022380008EE100AB0EEC86A16EE100AFEF72EF97C
:1022480013A3D3E90023FEF70DFC30B1D4ED017AD6
:1022580087EE888A84ED018A0CE0009414AC284645
:1022680094E80E009DED050ADDED060A9DED071ABE
:10227800FFF762FE012009B0BDEC028BBDE8F04F0C
:1022880002B07047AFF30080399D52A246DF913FFC
:10229800BBBDD7D9DF7CDB3D2DE9F04F2DED048B9D
:1022A800074689B008A800E90E00B96B4A1C9000DF
:1022B8008DED020ACDED030A8DED041A0CF0F6FF40
:1022C800064620B95C480DF08BFD3046A8E0169C08
:1022D80000230546B7EE008A6360A5EC018A0398DF
:1022E800FEF7DCF852A3D3E90023FEF72BF941EC03
:1022F800100B12F055F951EC100BFEF7E5FB09EE47
:10230800100A0124B86B844200F3868004F10109A5
:102318004FEA440A01EE909A00EE90AAB8EEE12A3C
:10232800B8EEE01A0AF1FF38C1EE022A022109FBD1
:1023380004FB9BFBF1F202F1010B06EE908A07EE1B
:10234800104AF8EEE67AB8EEC70A28EE278A12EEA7
:10235800900A88EE008AFEF7A1F841EC100B12F003
:1023680009FC53EC102B18EE100A8DED010A0093AE
:10237800FEF794F8019A009BFEF7E4F8FEF7A4FB39
:10238800012C03EE100A02D1316871601AE0631E55
:102398005B43AAF1030A581E0AFB08FA04EE100A66
:1023A80008EE90AAB8EEC46AF8EEE88A15ED025A6B
:1023B800C6EE284A55ED013A64EE855A59EE235A7D
:1023C800C5ED005ABB6A059A07994FEA8B0B02EBD9
:1023D800840403EB0B00FA6A90ED000A069802EBFE
:1023E8000B03D3ED000AD0ED017AD1ED016A20EE9E
:1023F800A71A10EE261AD4ED001AB5EC017A169C2D
:1024080021EE212AD4ED013A62EE072A42EE833A00
:10241800C4ED013A4C4675E730460CF04FFF0120F9
:1024280009B0BDEC048BBDE8F08F00BFAFF30080AE
:10243800399D52A246DF913F7D980108AFF3008095
:1024480082B02DE9F04F2DED028B89B0884614A992
:1024580081E80C00179C159B169DD8F838E003936B
:1024680000218DED050ACDED060A8DED071A0495BC
:10247800A160616021600432012373457BDC5D1C2F
:10248800022605FB03F999FBF6F9002107EE105A1D
:10249800039F049E0291029D043704369D4267DC27
:1024A800029DD8F8281005EB090CD8F82C504FEAF3
:1024B8008C0C05EB0C0ADAED005A56ED010A614462
:1024C80091ED000A57ED016A25EEA01A00EE261AD2
:1024D800D2ED001A056821EE212AF8EEC72A05EB8D
:1024E8000C0BDBED003A22EE223A94ED024A03EEA1
:1024F800634ADDED026A84ED024A17ED016A9AED3E
:10250800008AD1ED004A16ED015A68EE067A54EEBB
:10251800857A92ED000AF8EEE60A67EE805ADBED5E
:10252800001A94ED012A25EEA01AD4ED007A01EEE6
:10253800212A84ED012ADAED003A16ED014AD1ED9F
:10254800002A17ED013A63EE844A42EE834A416855
:1025580092ED005A01EB0C0595ED006A24EE858A90
:10256800029948EE467A4D1CC4ED007A029592E72E
:102578000133043281E70698FDF790FF1CA3D3E9E5
:102588000023FDF7DFFF41EC100B11F015FF51ECB4
:10259800100BFEF799FA08EE100AB0EEC86A16EEAC
:1025A800100AFDF77BFF14A3D3E90023FEF75AFABC
:1025B80030B1D4ED017A87EE888A84ED018A0CE087
:1025C800009414AC404694E80E009DED050ADDED3C
:1025D800060A9DED071AFFF75FFE012009B0BDEC62
:1025E800028BBDE8F04F02B0704700BFAFF3008028
:1025F800399D52A246DF913FBBBDD7D9DF7CDB3D79
:1026080084B02DE9F04194B01AAC259D269F84E84A
:102618000F00AB6B5A1C981C00FB02F1022691FBC1
:10262800F6F08DED050ACDED060A8DED071AFEF7D9
:1026380081FD0646A86BFEF7D3FDAB6B03900293B2
:102648001EAA044692E803008DE803000DF1680E07
:102658009EE80F009DED050ADDED060A9DED071ABF
:10266800FFF73AF89DED050ADDED060A9DED071A1C
:102678003146A86BFFF710FC08A80190A1680091EB
:1026880094E80C0029469DED050ADDED060A9DED4E
:10269800071A3046FFF7D4FE0EAB0193A2680092EA
:1026A80094E80C0029469DED050ADDED060A9DED2E
:1026B800071A3046FFF714FD249D0DF12C080095EC
:1026C800CDF8048020AD95E80F009DED050ADDEDFD
:1026D800060A9DED071ADDED081A9DED092ADDEDC4
:1026E8000A2AFEF77DFF249911A80190009195E828
:1026F8000F00DDED0E1A9DED0F2ADDED102A9DED80
:10270800050ADDED060A9DED071AFEF769FF394651
:102718004046FEF7C9FD9DED110ADDED120A9DED5B
:10272800131A3846FEF72CFE3046FEF78FFD20467A
:10273800FEF79FFD012014B0BDE8F04104B07047DA
:102748002DE9F04F2DED028B85B004AC04E90F00A4
:10275800109C119D236860682B60E36BA16B686017
:1027680003F1010A0AFB03F00222A96390FBF2F1CC
:1027780001EB030AEB6305F1080004F108019DED84
:10278800038A0DF0FDFDD4F838C00122624553DC00
:10279800561C022306FB02F797FBF3F000FA03F33B
:1027A80000210F185745D5F82C902FDC676B07EBE5
:1027B8000308E76AD4ED016AFF1898ED007AD7EDAF
:1027C800007A38EE660A276B40EE077A9944C9ED1D
:1027D800007A07EB0309AF6A07EB030BA76AD4ED8E
:1027E800010AFF1897ED002AD9ED001A38EE601A91
:1027F8006F6B01EE212AFF188BED002AD8F800E054
:10280800C7F800E0D9F800802F6B0CE0E76AFF18E2
:10281800D7F8008009EB0307C7F80080A76AFF18FC
:10282800D7F80080AF6AFF18013104339142C7F826
:102838000080B6DD3246A9E7012005B0BDEC028B69
:10284800BDE8F08FF8B55A20FEF796FC244C2549D0
:1028580020600C238363C36341602022224908302F
:102868000DF01CFE236821499E6ADD6A1C6B586BBB
:10287800002232602A602260026000220F6846F857
:10288800047F0432D1F804E0AF18C7F800E0D1F8AB
:1028980008C0A718C7F800C0D1F80CE08718103195
:1028A800B2F5B47FC7F800E0E8D193ED017AF1EE14
:1028B800047A37EE270A5B2083ED110AFEF75CFCE9
:1028C8000B4B0C4918600C4A0C480D4B01604260D8
:1028D80083600C490C4A0D4B0161C2604361F8BD2D
:1028E800C80F00200040FB447896010818BE010874
:1028F800E80E00201951C74505A6C645401000201E
:10290800D4BA5B3B3191A73D815DDB3B9A19C74542
:1029180008B5054B1868FEF77AFC04480068BDE85E
:102928000840FEF774BC00BFC80F0020E80E002066
:102938002DE9F04F8BB0FFF785FF724BDFF8188257
:10294800DFF8189293F83340188E93F83210C9F8CC
:102958000000D3ED016A93ED022AD3ED000ADFED02
:102968006A7AB8EEE67AF8EEC22A9FED683AB8EECF
:10297800E01A27EE270A61EE271A62EE833A002250
:10298800C8ED011AC8ED023AC8F81020C9F80410B9
:10299800C9F8084088ED000A03F04EF889ED030AEB
:1029A80003F04AF888ED020A03F046F888ED010AB8
:1029B80003F042F888ED000A45460FCD02AE0FC677
:1029C8002F68534C3760534EDFF894B1079604F1E3
:1029D800100A9AE803008DE8030094E80F00FEF758
:1029E8003BFD4D4BDBF800001A680190009247460A
:1029F80099E80F00FFF7A4FE0FCF96ED000AD6ED79
:102A0800010A96ED021A02AE0FC62968434F3160DB
:102A1800DBF80050424E0795424D08959AE80300AE
:102A28008DE8030094E80F00FFF7EAFD3C683046A4
:102A3800A047D9F80C003C4CFDF730FD02460B4688
:102A48003A4821688847D8F80800FDF727FD02466C
:102A58000B46374821688847D8F80400FDF71EFD63
:102A680002460B46334821688847D8F80000FDF72E
:102A780015FD02460B463048216888473B683046BA
:102A880098472869FDF70AFD02460B462B4821683E
:102A980088476869FDF702FD02460B462848216809
:102AA8008847A869FDF7FAFC02460B4625482168C5
:102AB8008847E868FDF7F2FC02460B462248216881
:102AC8008847A868FDF7EAFC02460B461F482168BC
:102AD80088476868FDF7E2FC02460B461C482168F7
:102AE80088472868FDF7DAFC0B4602462168194832
:102AF80088473A68304690470BB0BDE8F04FFFF77B
:102B080007BF00BF6C38002095BFD633BD37863568
:102B180040100020E40F0020C80F0020F8310020EA
:102B2800E3AD0108F00F0020FC310020B8C3010814
:102B3800C7C30108D6C30108E5C30108F4C30108E7
:102B480003C4010812C4010821C4010830C40108E3
:102B58003FC401084EC40108D00F002030100020E7
:102B6800E80E002010B50131002393420ED0040F67
:102B7800092C01D8303400E0373401F8014C013316
:102B88000024000101F8024BDBB2EEE710BD0000A3
:102B9800F7B5012001460BF047FA01214FF4003048
:102BA8000BF036FA01244FF48055002603276946B6
:102BB8004FF0904000958DF805708DF804408DF821
:102BC80006408DF807600BF02BF829464FF090402F
:102BD8000BF073F8C82002F05BF929464FF09040DB
:102BE8000BF069F821464FF400300BF011FA02207F
:102BF8004FF4C0538DF8040069464FF0904000939D
:102C08008DF805708DF806608DF807600BF008F8F0
:102C18000B210E224FF090400BF051F80C210E22A0
:102C28004FF090400BF04BF812200AF0EDFF0448EB
:102C3800122108220160427184710AF061FFFEBD11
:102C48006410002008B500200BF0DCF94FF40000F8
:102C58000121BDE808400BF0F3B90000044B05481A
:102C68009A7A0AB1052100E00121016009F0B2BA9F
:102C7800043C0020D00B002013B54FF4A0600BF0EB
:102C880035F8022014238DF805000021012401A83D
:102C98008DF804308DF806108DF807400BF030F8E9
:102CA8002A2201A88DF804208DF805400BF028F899
:102CB8001CBD7047094B10B593E814000833186819
:102CC80010180AD008220649FFF74CFF054920468C
:102CD8000422BDE81040FFF745BF10BDACF7FF1F49
:102CE80002000020120000200E4B10B50C46196897
:102CF800A9B9202C01D884B100E020242246C021A3
:102D08000AF0F4FB012021460AF0FAFC05480268A3
:102D1800A318036001200AF061FC204610BD0020C2
:102D280010BD00BF60100020144B70B51A680C4627
:102D38009142134988BF1C680D780023A34206D22C
:102D48001049CE18725DC2540133DBB2F6E70B4866
:102D580005682E1B0A4D06602B780668E2182A7053
:102D68004EB9032040210AF0D9FC03204FF440510A
:102D78000AF017FC2E70204670BD00BFAC10002072
:102D8800CC0B00206C100020034B1868411F4A42EE
:102D980052EB0100704700BFD00B0020024B1868AF
:102DA800003018BF01207047D00B0020014B0022D3
:102DB8001A6070476010002008B503200AF0CCFCA8
:102DC800054B18601A6805484FF4887192B2BDE83F
:102DD80008400AF0A2BB00BFAC1000206C10002015
:102DE800254B264A196888B2254910B510801488E1
:102DF8000888044004F4007294B23CB14FF6FF51C5
:102E08001960204B1A78541CE1B219701B4B1A88B0
:102E1800104000F4004081B21C4609B10AF0A0FA43
:102E2800174B22881888104000F480618AB232B1AA
:102E3800114B15494FF6FF3018604A6890470F4A02
:102E48000F4B10881B88184000F4005188B218B145
:102E580009494DF6FF7008601288134003F4805347
:102E680098B240B1044A4EF6FF7100201160BDE8E7
:102E7800104000F04FB910BD445C0040B010002075
:102E8800283C0020CD0B00205C000020034B987AE2
:102E980010B1034905220A60704700BF043C0020B6
:102EA800D00B0020014B04221A607047D00B002081
:102EB800034B1A78202A01D100201870704700BFF0
:102EC800CE0B002070470000212810B508D111480A
:102ED8000368197801F07F02212A11D0022010BD61
:102EE8002028FBD10B4B19680A780B4902F07F03A5
:102EF8000A4A212B0CBF0B46002310700BB9EDE7D3
:102F0800074B044C2068002483614482204698477C
:102F1800204610BD243C0020792F0008CE0B00204D
:102F2800612F0008074B19680A7802F07F03212BEC
:102F380005D1022801D1002070472228FBD00220A9
:102F4800704700BF243C002009B1022070470128C7
:102F5800FBD808467047000020B9034B19680822BF
:102F68000A82704701487047243C0020D80000209E
:102F780020B9034B196808220A8270470148704734
:102F8800243C0020D8000020054B1968CA78042A80
:102F980004D8044B03EBC20109F060BF002070475E
:102FA800243C0020B8000020014909F057BF00BFA9
:102FB80054000020014909F051BF00BFB0000020B3
:102FC800334A344BD179186810B5002441728472A1
:102FD800C47220460AF0B4FA20464FF400710AF091
:102FE800B7FA102120460AF0BFFA402120460AF01D
:102FF8005BFB802120460AF047FB20460AF010FBC5
:10300800254B204693F82C100AF088FB20460AF03E
:10301800F6FA012021460AF09BFA0120C0210AF0A5
:1030280033FB012020210AF09FFA012021460AF0F3
:10303800B8FA02204FF4C0610AF08AFA02204FF46D
:1030480080710AF021FB022021460AF0AAFA022028
:1030580020210AF089FA032021460AF079FA032090
:103068004FF488710AF020FB032040210AF056FB38
:1030780003204FF440510AF094FA032021460AF045
:1030880073FA20460AF0FEF8044A0120106010BDC9
:10309800CBC40108243C00205C000020D00B002099
:1030A80010B5FFF707FE054B18680024847200F07E
:1030B80009F80AF067FB02490C6010BD243C0020A7
:1030C800D00B002008B50120FFF7F3FD064B074998
:1030D800012200201A601860086005494FF4E05288
:1030E8000A801A6008BD00BF405C0040445C004094
:1030F800283C002010B5064C22684FF6FB7313409D
:103108002360FFF7ABFD4FF43640206010BD00BFD1
:10311800405C0040254B072810B518BF18701A7876
:10312800224C052A3ED8DFE802F0030D1317202BA6
:103138001F4A116819B9FFF7DDFF062000E00520D6
:10314800207010BDFFF7D6FF04202070012226E072
:1031580002215970032226E05978481EC2B25A70DB
:103168005B780BBB0422114B1DE0124B1A6891B21D
:1031780041F0100018600A2205232370627010BD08
:103188005878411ECAB25A705A786AB9094908680B
:103198004FF6EF73034005480B6006210170044B9E
:1031A8001A6010BD06221A7010BD00BFB4100020AE
:1031B800D40B0020405C00401548164902680060A6
:1031C8008A4200F01F80002100F004B8124B5B58BF
:1031D800435004311148124B42189A42FFF4F6AF9B
:1031E800104A00F003B8002342F8043B0E4B9A4201
:1031F800FFF4F9AF08F0EEFF0BF09AFF07F0A0FF1D
:10320800FFF7FEBF0948D0F800D04068004700002B
:10321800FC9F0020EFBEADDEAC08020800000020D5
:10322800B00B0020B00B0020343C002000D8FF1F5A
:10323800FFF7FEBF10B508212148224C01F068FCB9
:1032480021484FF480410AF038FDC3211C4801F0A1
:1032580035FC00211A4801F031FC00216070184843
:1032680001F02CFC00212070154801F027FC0021FA
:103278006071134801F022FC00212071104801F010
:103288001DFC0021E0700E4801F018FC4FF480414D
:10329800A0700D480AF00FFDB4F9003013F5805FF7
:1032A8000BD0B4F9020010F5805F06D0B4F9041011
:1032B80011F5805018BF012010BD002010BD00BFBF
:1032C80000380040D81000200008004838B56D4884
:1032D800082101F01DFC6C484FF480410AF0EDFC18
:1032E8000021684801F0EAFBF121664801F0E6FB9D
:1032F8004FF4804164480AF0DEFC322001F0C8FD3A
:1033080061484FF480410AF0D8FC01215D4801F082
:10331800D5FB20215B4801F0D1FB5B484FF480418D
:103328000AF0C9FC142001F0B3FD584B00221A60C2
:103338005A609A600A24002553484FF480410AF0E5
:10334800BCFC02214F4801F0B9FB01214D4801F0B6
:10335800B5FB4D484FF480410AF0ADFC142001F054
:1033680097FD9DB948484FF480410AF0A6FC892191
:10337800444801F0A3FB2946424801F09FFB4FF463
:103388008041054640480AF096FCEAE7FFF752FFFD
:103398003F4B3E48B3F90010B3F90220B3F90430AB
:1033A80006EE101A06EE902A03EE903AB8EEC60A18
:1033B800DFED387AF8EEE61AB8EEE34ADFED364A82
:1033C800C7EE800A013C14F0FF0487EEA12A84EEC0
:1033D800845A90ED007AD0ED012AD0ED025A30EEF1
:1033E800871A32EE223A35EE250A80ED001A80ED72
:1033F800013A80ED020A9FD1F2EE047A81EE276A43
:103408004FF4804183EE277AC0EE276AF0EEC60AB1
:10341800B0EEC71AF0EEE61AC0ED000A80ED011A08
:10342800C0ED021A18480AF048FC2146154801F078
:1034380045FBF021134801F041FB4FF4804112484D
:103448000AF039FC322001F023FD0F484FF4804187
:103458000AF033FC02210B4801F030FB21460948F1
:1034680001F02CFB4FF4804107480AF024FC14209B
:1034780001F00EFDFFF7DEFE1420BDE8384001F034
:1034880007BD00BF0038004000080048E0100020D9
:10349800D8100020CD0C9E446726934470B52F4C5D
:1034A8002F4E304D2046022101F032FB30464FF4BA
:1034B80000410AF002FCBB21204601F0FFFA00217E
:1034C800204601F0FBFA00216870204601F0F6FA68
:1034D80000212870204601F0F1FA0021E87020460A
:1034E80001F0ECFA0021A870204601F0E7FA00216B
:1034F8006871204601F0E2FA00212871204601F0A7
:10350800DDFA194D00216870204601F0D7FA002134
:103518002870204601F0D2FA144D00216870204628
:1035280001F0CCFA00212870204601F0C7FA0021EA
:10353800E870204601F0C2FA0021A870204601F088
:10354800BDFA00216871204601F0B8FA4FF4004135
:1035580028713046BDE870400AF0ADBB0038004025
:1035680000080048FC100020EC1000202C1100205E
:10357800224B234AB3F90000224B234907EE900A55
:103588009FED227AB8EEE70A9FED211AC0EE070AEE
:103598002048D3ED076A70EE811A93ED0A2AD3ED1D
:1035A800082A93ED0B3AD3ED093A93ED0C4AD3ED83
:1035B8000D4A93ED105AD3ED0E5A93ED116AD3EDDF
:1035C8000F7A93ED120A01EEA62A01EEA23A01EE55
:1035D800A34A01EEA45A01EEA56A01EEA70AC1EDBD
:1035E800001A82ED002A82ED013A82ED024A80ED4E
:1035F800005A80ED016A80ED020A7047EC10002045
:10360800080C002058350020041100200000AA43AF
:1036180000000C42F010002010B5644886B000236A
:10362800012200930193029303930493059302707C
:1036380041F28834FFF732FFFFF79AFF5C495D4A91
:10364800B1F90030B1F90200B1F9041006EE903A70
:10365800D2ED017A584BB8EEE60A93ED001A70EEF7
:10366800670A02EE900A70EEC11A92ED047AD2ED62
:10367800023A9DED002AB8EEE23A06EE901A01EE03
:10368800872A33EE634AD3ED014AD2ED037AB8EEC6
:10369800E60A34EE645AD2ED055A70EE670A93EDE5
:1036A800021A92ED067A9DED016A444A4449B2F93C
:1036B8000200B2F90030B2F9042005EE256A70EE76
:1036C800C11A8DED002A9DED022A02EE903A01EE14
:1036D800872A05EE900A01EE102AB8EEE23A8DED3F
:1036E800016AD1ED003AB8EEE56AD1ED016AF8EE6B
:1036F800C11A91ED027A33EE634ADDED034ADDED3E
:10370800047ADDED052A8DED022A36EE660A31EEE1
:10371800C72A34EE845A77EE800A32EE823A013CA8
:103728004FF47A70A4B28DED035ACDED040A8DEDF5
:10373800053A01F091FB002C7FF47CAF234600A9E9
:10374800C818D0ED003A9FED1F4AC3EE844A06A977
:103758001D4A9A18C0ED004AC81810ED035AC5EE64
:10376800045A04330C2BC2ED005AE8D1DDED016A8E
:103778009DED006A66EEA67A46EE067A9DED020A8F
:1037880040EE007A17EE900AFCF788FE41EC100B29
:1037980011F0F0F951EC100BFDF796F90B4A106097
:1037A80002480021017006B010BD00BFF40B0020D4
:1037B800FC10002058350020080C00202C11002097
:1037C800F010002000409C4514110020E400002067
:1037D80038B55A4C5A4D2046802101F099F92846AF
:1037E8004FF400410AF069FA6B21204601F066F9AE
:1037F8008021204601F062F928464FF400410AF082
:103808005AFA962001F044FB28464FF400410AF08A
:1038180054FA6B21204601F051F90321204601F0AA
:103828004DF928464FF400410AF045FA012001F00D
:1038380013FB28464FF400410AF03FFA6A2120465C
:1038480001F03CF91021204601F038F928464FF4E0
:1038580000410AF030FA012001F0FEFA28464FF440
:1038680000410AF02AFA6C21204601F027F90021CC
:10387800204601F023F928464FF400410AF01BFACC
:10388800012001F0E9FA28464FF400410AF015FA40
:103898001921204601F012F90021204601F00EF905
:1038A80028464FF400410AF006FA012001F0D4FA44
:1038B80028464FF400410AF000FA1A21204601F088
:1038C800FDF8204B204693F8741001F0F7F82846CD
:1038D8004FF400410AF0EFF9012001F0BDFA284643
:1038E8004FF400410AF0E9F91C21204601F0E6F8FE
:1038F8000821204601F0E2F828464FF400410AF07A
:10390800DAF9012001F0A8FA28464FF400410AF03C
:10391800D4F91B21204601F0D1F81021204601F0EE
:10392800CDF828464FF400410AF0C5F9642001F0AB
:10393800AFFABDE83840FFF76FBE00BF003800405F
:10394800000800485835002070B51B4C1B4D1C4E14
:103958002046022101F0DCF828464FF400510AF015
:10396800ACF90021204601F0A9F80021204601F019
:10397800A5F80021B070204601F0A0F80021707071
:10398800204601F09BF84FF40051307028460AF0A9
:1039980092F9012001F060FA28464FF400510AF02C
:1039A8008CF94821204601F089F828464FF4005147
:1039B800BDE870400AF07FB90038004000080048B0
:1039C8006411002070B51B4C1B4D1C4E2046022173
:1039D80001F09EF828464FF400510AF06EF90021D4
:1039E800204601F06BF80021204601F067F800211D
:1039F800B070204601F062F800217070204601F096
:103A08005DF84FF40051307028460AF054F901204F
:103A180001F022FA28464FF400510AF04EF95821D5
:103A2800204601F04BF828464FF40051BDE870409D
:103A38000AF041B900380040000800484811002049
:103A4800094B0A491A880B68094910021A1A0948C9
:103A58000B88026082FB0323D20D42EA4320064B07
:103A680000F5FA61196070475411002050110020C8
:103A780040110020441100205811002000000000CF
:103A88002DE9F8434C494D4B0E6818884C4A86FB83
:103A980000011488C50945EA4160CB114FEA044882
:103AA8004849494C0A88258818EB00084FF0000956
:103AB80049EB0309E80386FB0245230A43EA05624A
:103AC8002C12424DD5F800E00021801841EB04018A
:103AD800BEF5FA6F31DA76434FEAE67CAEF5FA6660
:103AE8007643F3179A00B400A41942EA967545EB99
:103AF8000305A3086F104FEA340643EA8572AB103A
:103B0800334DAE450EDA0EF2DC5464430725C5FB8F
:103B180004670B2584FB05456D104FEA3404121920
:103B280043EB0503294CCCEB0E052560B8EB0608E2
:103B380069EB0709801A61EB0301264A1368A3FBA6
:103B4800004503FB0155610D6B1541EAC522B2EB37
:103B5800080863EB09094FEAD83040EA494207EE02
:103B6800902A9FED1D0AB8EEE77AC7EE000A10EE1C
:103B7800900AFCF793FC9FED0C1B41EC100B10F026
:103B880045FE002053EC102B1449FCF727FB08A333
:103B9800D3E90023FCF7D6FCFCF796FF104BD8635B
:103BA800BDE8F883AFF30080000000C0955BC83F14
:103BB8000000000040A5E54044110020421100200B
:103BC8004C110020681100206011002058110020BD
:103BD80024FAFFFF5C11002080E6C5470000F03F93
:103BE80060390020AFF3008070B56D4C6D4D6E4E9E
:103BF8002046022100F08CFF28464FF400510AF0BD
:103C08005CF81E21204600F059FF032001F040F91E
:103C180028464FF400510AF04EF8012001F01CF933
:103C280028464FF400510AF048F8A221204600F037
:103C380045FF0021204600F041FF0021707020461A
:103C480000F03CFF4FF40051307028460AF033F87A
:103C5800012001F001F928464FF400510AF02DF82F
:103C6800A421204600F02AFF0021204600F026FF6C
:103C78004E4E00217070204600F020FF4FF4005196
:103C8800307028460AF017F8012001F0E5F82846B8
:103C98004FF400510AF011F82046A62100F00EFF5B
:103CA8000021204600F00AFF414E00217070204696
:103CB80000F004FF4FF400513070284609F0FBFF74
:103CC800012001F0C9F828464FF4005109F0F5FF2A
:103CD800A821204600F0F2FE0021204600F0EEFE6A
:103CE800344E00217070204600F0E8FE4FF4005179
:103CF8003070284609F0DFFF012001F0ADF82846B2
:103D08004FF4005109F0D9FFAA21204600F0D6FE51
:103D18000021204600F0D2FE274E00217070204678
:103D280000F0CCFE4FF400513070284609F0C3FF74
:103D3800012001F091F828464FF4005109F0BDFF29
:103D4800AC21204600F0BAFE0021204600F0B6FE65
:103D58001A4E00217070204600F0B0FE4FF400515A
:103D68003070284609F0A7FF012001F075F82846B1
:103D78004FF4005109F0A1FF5821204600F09EFEA3
:103D88004FF40051284609F096FF0A2001F080F808
:103D9800FFF7DAFD0A20BDE8704001F079B800BFEE
:103DA8000038004000080048601100204C11002035
:103DB80068110020421100205411002040110020F9
:103DC80030B54FF4D8709BB00AF00CF9564809F09A
:103DD800DFFD5648564B10900821ADF848102020BA
:103DE8004FF40051002480220F934FF480754FF454
:103DF8008063179018914C4814920FA91693159543
:103E080011941394199409F03BFE4748012109F0D5
:103E180057FE0325302202234FF090406946009256
:103E28008DF805308DF804508DF806408DF8074060
:103E380009F0F6FE01213F4809F019FD0A2001F0BA
:103E480027F83C48214609F007FD3A4809F0FFFCED
:103E5800384809F009FD04460028F9D10A2001F084
:103E680017F802253348029402A9039404948DF8A4
:103E78001840059509F0B4FC4FF4005007900894D9
:103E880009940A940B940C940D942A48082407A9C1
:103E98008DF8384009F086FC01210A46254806239A
:103EA80009F0F2FC234801212A46062309F0ECFC1C
:103EB800204801210322062309F0E6FC1D480121C0
:103EC8000422062309F0E0FC1A48294605220623A5
:103ED80009F0DAFC062213461648294609F0D4FCF4
:103EE800144829460722062309F0CEFC1148294622
:103EF8002246062309F0C8FC0E48012109F09EFC61
:103F08000C48012109F03EFD0028F9D0022109489A
:103F180009F030FD0748012109F023FD054809F0A3
:103F28001BFD1BB030BD00BF08040240160C00206A
:103F38004001005000010050074B59881A88881822
:103F48009988DB8811FA80F013FA80F291B200EEBA
:103F5800101ABBEECF0A7047160C0020074B598980
:103F68001A8988189989DB8911FA80F013FA80F286
:103F780091B200EE101ABBEECF0A7047160C002063
:103F880070B51E4C022120460AF009FB012806469E
:103F980033D120460AF06CFA022185B220460AF095
:103FA80008FB174B174A1878194670B91E70206A13
:103FB80015804FF6FE7303402362216A4FF6F572AF
:103FC8000A4042F00300206270BD13880E489D42EB
:103FD80001D9ED1A01E0DA43551900230580074895
:103FE8000B70016A4FF6FE720A400262036A4FF6CE
:103FF800F571194041F00102026270BD00440140B0
:104008002A0C0020280C0020260C0020F0B5284D92
:10401800284B294E8BB000240122284604211C80FD
:1040280009F04DFE10200321022702908DF80D1093
:10403800284602A901258DF80C708DF80E408DF8E0
:104048000F7009F0EDFD192201A88DF804208DF8F4
:1040580005708DF806408DF8075009F051FE4FF6AF
:10406800FF704723089007A93046ADF81C30ADF81B
:104078001E40ADF824408DF826400AF0D3F83046AB
:1040880004A9ADF81040ADF81240ADF81450ADF8E1
:104098001640ADF818400AF012FA304639462A465A
:1040A8000AF070FA304629460AF006F90BB0F0BD5E
:1040B80000040048260C002000440140074B1888E3
:1040C80000EE100ADFED067AF8EE400AB1EE0C1A9F
:1040D80020EEA70ADFED030A08F000B9260C00203D
:1040E800F5C8343900000000884206D250F8042B85
:1040F80092FAA2F2014B1A60F6E7704700300240CC
:1041080070B506460D4640200121094C09F080FF94
:104118000123A36000BF00BF00BF00BF304629468F
:10412800FFF7E2FF206890FAA0F1C84370BD00BF16
:104138000030024013B50F4C0120032100224FF438
:10414800A0538DF804008DF80510204669460093A9
:104158008DF806208DF8072009F062FD20464FF4FF
:10416800806109F0AAFD20464FF4805109F0A3FDB3
:104178001CBD00BF0004004838B5022119480AF0E8
:104188000EFA0128044609D1174D184B2A881548FC
:104198001A800AF06DF92880154804700221114828
:1041A8000AF007FA1049114B0A881888111A8BB2BD
:1041B80041F2185293420F4A02D90023137038BDB6
:1041C800A3F2DD5080B240F6B631884205D81278A5
:1041D800072A9CBF084921F81230064B1878411C61
:1041E800197038BD002C0140400C00203C0C002008
:1041F800430C00203E0C00202C0C002070B5002041
:104208008AB02D4A431C40F6B83122F81010D8B2B3
:104218000728F6D9294C0321022620708DF80D10A5
:10422800002402A94FF480754FF0904002958DF854
:104238000C608DF80E408DF80F4009F0F1FC082154
:1042480006224FF0904009F03AFD01251B2201A8F3
:104258008DF804208DF805608DF806408DF807501C
:1042680009F04EFD4FF6FF71232308911448ADF86D
:104278001C3007A9ADF81E40ADF824408DF8264043
:1042880009F0D0FF04A90E48ADF81040ADF812406F
:10429800ADF81450ADF81640ADF818400AF00FF913
:1042A800314607482A460AF06DF9054829460AF0BA
:1042B80003F80AB070BD00BF2C0C00206A11002062
:1042C800002C0140014B33F8100070472C0C0020E3
:1042D8002DE9F0418AB0CF230024022503264FF0B0
:1042E8009040694600938DF805608DF804508DF86C
:1042F80006408DF8074009F093FC4FF090402146A6
:10430800012209F0DCFC01210A464FF0904009F037
:10431800D6FC4FF090402946092209F0D0FC3146DE
:104328004FF09040092209F0CAFC3E4FDFF80081A7
:104338004FF0904006212A4609F0C1FC4FF090400A
:1043480007212A4609F0BBFC788CADF8104098FB91
:10435800F0F18AB2531E23264FF0804002A903933E
:10436800ADF80860ADF80A408DF8124009F05AFF20
:104378002D4802A909F056FF70214FF4FA624FF454
:104388008073012605914FF0804005A90792ADF88A
:104398002430ADF81860ADF81A40ADF82050ADF8EB
:1043A8002240ADF8264009F093FF4FF0804005A960
:1043B80009F0CCFF1C4805A909F08AFF1A4805A98D
:1043C80009F0C4FF4FF08040314609F075FF1648E8
:1043D800314609F071FF144831460AF0CAF897F8D7
:1043E8003C0060B9B7F84410D7ED137A98FBF1F2A6
:1043F800BCEEE70A93B2581E8DED070A039002A996
:104408000A4809F00FFF05A9084809F061FF05A946
:10441800064809F09BFF0548012109F04DFF0AB045
:10442800BDE8F081C0320020004001400004004097
:1044380080841E00024B53F820000160704700BFC3
:1044480010C50108F0B5344D8BB0032000244FF49B
:10445800707302268DF805006946284600938DF88A
:1044680004608DF806408DF8074009F0D9FB28460E
:104478000621324609F023FC28460721324609F076
:104488001EFC28460821324609F019FC2846092155
:10449800324609F014FC2149214A8F8CADF81040AE
:1044A80092FBF7F398B2451E03951E4DADF80A40EE
:1044B8002321ADF80810284602A98DF8124009F00A
:1044C800B1FE4FF48070702240F6B8330127ADF882
:1044D800240005A9284605920793ADF81870ADF891
:1044E8001A40ADF82060ADF82240ADF8264009F03A
:1044F800EFFE284605A909F029FF284605A909F075
:104508005BFF284605A909F08BFF2846394609F0C4
:10451800D3FE0BB0F0BD00BF00040048C03200203D
:1045280080841E0000080040024B53F82000016000
:10453800704700BF28C5010848F20100002106F0B5
:1045480059B848F20300002106F054B8F0B5284BDA
:1045580028491878284A294C0D7811882378C600EC
:10456800361A2748002204781046B04228DA25492E
:1045780001EB4003998915B1012D1DD109E0C1F363
:1045880083230B2B02D90F2B12D116E04FEA815C43
:1045980005E0C1F3C3230B2BF5D84FEA415C4FEA82
:1045A8005C5707F5FA6C184F013227F813C0D2B2DE
:1045B8009C4238BF1C4600E00F230130C0B2D4E74C
:1045C8000D4D29800D490B70104B0D491A70104B79
:1045D8000C70944218700F4807DA0F4B01210170D4
:1045E8001868BDE8F04008F063BA00220270F0BD18
:1045F800450C0020440C0020741100209A11002062
:10460800460C0020E80000207E1100207C110020CC
:104618006A110020430C00206C110020024B00227C
:104628009A72FFF793BF00BFE800002038B50C4628
:1046380049782378D1F1010138BF0021012B0D46BB
:1046480002D0A37883B941B9002046212070617057
:10465800A070E0702071A07138BD02B10002208105
:104668000123A370032321E019B1012222704623FC
:104678001CE0012B11D12E4B32B1218942182D4853
:1046880022810178197006E02B4AC0F3001100F06E
:104698000300117018700223E3E7022B08D1E278B7
:1046A80060710AB9C109A1710323A370637038BD91
:1046B800032B10D16370A172E378A1790225A5704C
:1046C80003EBC105691A657904EB410140EA05204D
:1046D80001338881E370E17806291ED92079431CCB
:1046E8001348D9B203782171994203D101210020DE
:1046F800A17220713AB91049104A08780D49107012
:104708000B700F4A00E00F4A106808F0D1F9002337
:104718004620A370E370A37160700B4A917A11B9B7
:104728000A4B987A18B1BDE83840FFF777BF38BD13
:10473800470C0020450C0020420C0020440C0020AF
:104748007011002078110020E800002010010020DE
:10475800084808B503689A060BD5C1698B0608D5C1
:1047680009F095FF0449C0B20022BDE80840FFF7F0
:104778005DBF08BD00480040E8000020084808B5B3
:1047880003689B060BD5C169890608D509F07FFF28
:104798000449C0B20122BDE80840FFF747BF08BD81
:1047A800003801401001002008B50548012109F032
:1047B800F2FE044B5A780AB1501E587008BD00BF6B
:1047C80000480140E8000020F0B53D483D4B8DB061
:1047D800012400251A2102270470472668461C7008
:1047E8008DF800108DF802508DF801708DF8034097
:1047F80009F086FAADF80C60334EADF8145010236A
:104808006322304603A9ADF80E3004928DF8165095
:1048180009F008FD22463046214609F0B3FE30462D
:10482800214609F0B8FE2146304609F045FD274EDD
:104838008DF8025027208DF8000068468DF8017029
:104848008DF8034009F05CFA30460B21072209F085
:1048580036FA4FF4006103220191304601A98DF820
:1048680009208DF80A508DF808708DF80B4009F072
:10487800D7F90795089509950B95154D04204FF420
:10488800E1330A9006A92846069309F097FE2246C6
:104898002846104909F007FF2846214609F0EEFE90
:1048A80023464FF47A710C4A0C4808F0BBF84FF4D1
:1048B8007A710B4A0B48234608F0B4F80DB0F0BDE6
:1048C80010010020E80000200048014000040048D2
:1048D800004800400501050041450008701100200E
:1048E8004B4500086C110020014B33F8100070474D
:1048F8007E11002073B5032301254FF48076002430
:104908004FF0904069468DF8053000968DF80440C8
:104918008DF806508DF8075009F082F94FF0904055
:10492800314609F0C2F9A84228D04FF4006614486D
:104938008DF8064069468DF8074000968DF80450BA
:1049480009F06EF90E48314609F0B5F93C2000F03F
:104958009FFA05244FF40061094809F0AEF9782060
:1049680000F07AFA06484FF4006109F0A4F9013C16
:10497800782000F071FA14F0FF04EBD17CBD00BF81
:10498800000400482DE9F043494B984289B0054698
:1049980040F08A804FF48020012109F039FB454816
:1049A8000D21052209F08BF942480E21052209F054
:1049B80086F905223F480F2109F081F94FF460403C
:1049C80000244FF00408019002274FF003093948EA
:1049D8008DF8087001A901268DF809908DF80A4014
:1049E8008DF80B4009F01CF90DEB08013148CDF8A2
:1049F80004808DF808608DF809908DF80A408DF8CC
:104A08000B6009F00DF941462A4809F054F94FF4B2
:104A180080482948CDF8048001A909F001F94146E8
:104A2800254809F048F94FF400482348CDF8048098
:104A380001A909F0F5F841461F4809F03CF94FF47F
:104A480000581D48CDF8048001A909F0E9F841464D
:104A5800194809F030F9284609F01EFB4FF4827115
:104A680007204FF4E0624FF40073ADF80E10ADF874
:104A78001C0003A92846ADF81020ADF81630ADF893
:104A88000C40ADF81270ADF81460ADF81840ADF8F0
:104A98001A4009F033FB28464FF4805109F07EFB99
:104AA8002846314609F06EFB09B0BDE8F08300BF27
:104AB80000380040000400480008004870B504466B
:104AC8000E4641F201052046022109F076FB20B985
:104AD800681E85B2002DF6D10EE02046314609F059
:104AE80068FB41F201052046012109F066FB38B94F
:104AF800013DADB2002DF6D1044B1988C8B270BD86
:104B08002046BDE8704009F056BB00BF480C0020A5
:104B180038B505460C46002109F034FB2B88102CCB
:104B280099B22CD009D8042C1DD0082C21D0022CE5
:104B380036D121F0380081B232E0402C25D007D898
:104B4800202C2DD121F038018AB242F0200127E033
:104B5800802C20D0B4F5807F22D121F0380398B280
:104B680040F038011CE021F0380398B240F0080109
:104B780016E021F038018AB242F0100110E021F06D
:104B8800380293B243F018010AE021F0380081B2EC
:104B980041F0280104E021F0380293B243F03001DB
:104BA800298028460121BDE8384009F0EBBA000009
:104BB80010B50A4A52E8003F09490A480C680068DB
:104BC80042E800310029F4D1074A1168201AB0FBE5
:104BD800F1F24FF47A7101FB032010BD500C002054
:104BE800041000E05C0C0020580C0020F8B5704B55
:104BF80070481A68704902600B685A1C0A6007F00E
:104C080031FF6E480278012A40F0D0806C490B7859
:104C1800002B40F0CB806B480178002940F0C6801B
:104C2800694B1878002840F0C18068490B78002B40
:104C380040F0BC8066480178002940F0B780654C98
:104C480025886E1CB7B2B7F57A7F94BF278022807B
:104C5800FFF7AEFF604B614F1A68614E6149044629
:104C6800801A08601C60FEF719FCB6F900003D6860
:104C7800B6F902107A682B185518B6F90420BE68E0
:104C88007D60594D3B60B318BB602F68574BC719FF
:104C980068682F600E18A96818686E6002EB010E2C
:104CA800534AC5F808E0B2F9005041195868B2F9FA
:104CB800025019604119B2F904009A685960111834
:104CC8009960444B1A8812F0010307D00A20B2FBFE
:104CD800F0F100FB112293B2A3B12AE04548012567
:104CE80005703E4944485D58DFF838C11D5000251D
:104CF8005D503E4958585D5043F80C0004330C2B66
:104D0800EFD1E3E73D49384A4E603D4E3D481360D8
:104D18005360936033780F6001250570C1F808E08F
:104D28001BB9FEF711FE357003E0FEF74BFE36485F
:104D3800057028490B881422B3FBF2F002FB1031EE
:104D48008AB212B93149012008700133642293FBF9
:104D5800F2F002FB103119B9FEF76CFA2C4B1870FF
:104D68001C4A10886423B0FBF3F103FB110293B2D1
:104D780013B9284A01211170C823B0FBF3F103FBD2
:104D8800110293B213B9244A012111704FF47A73B6
:104D9800B0FBF3F103FB110082B212B91F4B0121E2
:104DA8001970FFF705FF1E4A001B1060F8BD00BF11
:104DB800041000E05C0C0020500C00204A0C00207D
:104DC8007E0C0020040C00207F0C0020800C0020AA
:104DD800F40B0020620C0020D0110020E80B00200A
:104DE800FC100020AC110020DC0B0020F80B002088
:104DF8002C1100204B0C0020341100202011002021
:104E0800140C0020550C0020150C00204D0C00201F
:104E1800D90B0020610C0020600C0020540C0020ED
:104E28009C11002008110020014B1868704700BF32
:104E3800500C002008B5074B596A11F0E05F0CBF11
:104E48004FF480400120090E05F0D4FBBDE808406E
:104E580009F01AB90010024010B50B4B1A6800236C
:104E6800094909688A1AD318084A1468B3FBF4F484
:104E7800844207D21268001BB3FBF2F402FB14331E
:104E88000A46EDE710BD00BF041000E0580C0020F2
:104E980010B504462CB14FF47A70FFF7DDFF013CE2
:104EA800F8E710BD30B591B001A808F05DFF019B8F
:104EB800914A9249924CB3FBF2F00860E568914B35
:104EC80045F08072E26018688F4C40F0010119606B
:104ED80025684FF47A72B5FBF2F3581EB0F1807F63
:104EE80009D28A4C8A4D6060F0210022072385F898
:104EF8002310A260236001214FF0805009F088F848
:104F08000120014609F084F80220012109F080F807
:104F180001214FF4003009F07BF801214FF4802083
:104F280009F076F801214FF4002009F071F8012109
:104F38004FF4804009F084F801214FF4006009F033
:104F480073F80120014609F07BF80220012109F0DD
:104F580077F80420012109F073F81020012109F0E5
:104F68006FF82020012109F06BF84FF480300121FF
:104F780009F05AF801214FF4003009F055F80121E1
:104F88004FF4802009F050F801214FF4804009F0D7
:104F98004BF801214FF4003009F052F801214FF489
:104FA800802009F04DF85B48FFF7ECFC002004F086
:104FB800EDFF002005F058F904F00AFF05F066F847
:104FC8005548047E012C01D1FFF794FCFFF732FF0E
:104FD8004FF4A06008F08AFE504D5149514A524B97
:104FE80029601A605148524C5249534D534A544B08
:104FF80020602960534854491A60544C544B554A10
:10500800554D1A602060296006F0DEFD534D00F012
:105018009DFCFFF78FF800F049F900F0C1FA4FF452
:1050280080514F4808F047FE42F21070FFF730FFFA
:1050380000F09CFC2C684B48A0472A684A484B491A
:1050480090474B484B4B01681C6811F4003F14BF54
:1050580049484A48A04701A808F086FE264C02990C
:105068002A684748B1FBF4F19047039A2B684548F2
:10507800B2FBF4F1984704992B684348B1FBF4F16B
:105088009847019B2A684148B3FBF4F190472248AE
:10509800384A017E136809B93D4800E03D48984701
:1050A80005F0ECFE42F21070FFF7F2FEFEF788FE04
:1050B800FEF7ACFFFFF7C6F91748017E012902D1B8
:1050C800FFF782FB01E0FFF799F800F075F804F0AC
:1050D80097FB05F013FB06F005FC06F097FF204848
:1050E8004FF4805108F0E9FDFEF772FBFEF7EEF889
:1050F800FEF77AFD11B030BD40420F00580C002079
:10510800F0ED00E0001000E00403002010E000E0F3
:1051180000ED00E000380040C03200206438002074
:105128000D5700082557000854380020E15700089B
:1051380058380020455700086038002019540008E6
:105148005C3900205554000889540008583900205B
:1051580040390020355400083C390020FC3100203B
:105168000004004838C5010889C50108C3C50108FD
:1051780000100240F8310020C7C50108EBC501083E
:1051880016C6010829C601083BC601084DC6010814
:1051980060C6010879C6010810B1034A034B1A60BA
:1051A80003480449C8607047EFBEADDEFC9F00208D
:1051B8000400FA0500ED00E030B5124D124C85B040
:1051C800002123204FF6FF73ADF80400ADF80C1052
:1051D800ADF806108DF80E10284601A9029309F0C3
:1051E80021F8204601A909F01DF828464FF47A61F4
:1051F80009F05EF8204644F6206109F059F805B038
:1052080030BD00BF001000400014004010B5184B1E
:10521800187801282BD0174A174B118888B219889B
:1052280089B2884223D01C881448154910FA84F49E
:10523800CC60108884B2188880B2844208D9148857
:105248001888A4B280B2201A4860128891B205E08A
:105258001A8890B2C0F500624A6000211980084897
:10526800034B01211970BDE8104008F029BC10BD9E
:105278006C0C0020640C00206E0C0020F819002033
:105288004400024008B54FF4005008F02FFC0548D0
:10529800002108F015FC044B00221A70BDE80840F4
:1052A800FFF7B4BF440002406C0C00202DE9F04F1A
:1052B80095B0032000244FF40073012507224FF016
:1052C80002098DF8090009214FF0904001938DF8EB
:1052D80008908DF80A408DF80B5008F0F0FC01A9F1
:1052E8004FF0904008F09CFC4FF480610722019138
:1052F8004FF090400A2108F0E2FC01A94FF09040DD
:1053080008F08EFC4FF4E1360E2268468DF8002036
:105318000C278DF801508DF802408DF8035008F0E5
:10532800EFFC0396324E07970DEB0701314F0494BB
:10533800304605940694089409F040F9384608F078
:1053480027FB2D492D4B099120204FF080084FF461
:10535800006B11904FF4805A384609A90A93ADF8AA
:1053680030B00B9413941094CDF838800F940D94AA
:10537800CDF848A008F084FB3846294608F0A0FB81
:1053880040212A46304609F086F9384608F0A3FB42
:105398001B4A143F1060384608F0FAFA19481A49AF
:1053A8000A9010230991384609A90B93ADF830B03B
:1053B80013941094CDF8388011940F940D94CDF86F
:1053C80048A008F05DFB384649462A4608F086FBA7
:1053D800304641462A467C6009F05DF93046294648
:1053E80009F04CF9094805F021F915B0BDE8F08F2E
:1053F800003801405800024024380140F8110020CC
:10540800680C0020F819002028380140B154000821
:1054180008B5044808F05FFB034B1968401A18BF29
:10542800012008BD58000240680C0020054B0648C2
:105438001A68C2F50061013A08BF4FF40062405C87
:105448001A607047680C0020F811002010B5013868
:1054580010F8012F5AB1084B084C198889B26254C8
:105468001A88510501F50012510D1980F0E7BDE8C1
:105478001040FFF7CBBE00BF640C0020F8190020D5
:105488000FB400B5C3B044AB02A853F8042B4FF4D3
:10549800807101930CF040FE02A8FFF7D7FF43B0DC
:1054A8005DF804EB04B0704782B002AB03E9030077
:1054B80004480099BDF80420BDF8063002B0FFF793
:1054C800DFBF00BFA1C6010870B500239AB28A42A7
:1054D8000DD2094AC65C1488084DA4B201332E5572
:1054E8001488640504F50014640D1480EEE7BDE823
:1054F8007040FFF78BBE00BF640C0020F819002035
:1055080010B5184B187801282BD0174A174B11885B
:1055180088B2198889B2884223D01C881448154952
:1055280010FA84F4CC60108884B2188880B284425F
:1055380008D914881888A4B280B2201A4860128842
:1055480091B205E01A8890B2C0F500624A60002165
:1055580019800848034B01211970BDE8104008F074
:10556800AFBA10BD780C0020700C00207A0C002017
:10557800F82900208000024008B54FF0007008F0BC
:10558800B5FA0548002108F09BFA044B00221A706E
:10559800BDE80840FFF7B4BF80000240780C002047
:1055A8002DE9F04F4E4E95B0002408230125032124
:1055B80007224FF00209304601938DF809108DF843
:1055C80008908DF80A408DF80B5008F078FB3046AB
:1055D80001A908F025FB4FF40040072201900F2194
:1055E8004FF0904008F06BFB01A94FF0904008F095
:1055F80017FB3C4E8DF8015011210C2768468DF899
:1056080000108DF802408DF8035008F079FB0DEB7F
:1056180007010797344F04944FF41652304603920B
:1056280005940694089408F0C9FF384608F0B0F9C4
:105638002E492F4B099120204FF080084FF4006B22
:1056480011904FF4805A384609A90A93ADF830B042
:105658000B9413941094CDF838800F940D94CDF8D2
:1056680048A008F00DFA3846294608F029FA4021E2
:105678002A46304609F00FF8384608F02CFA1D4A39
:1056880014371060384608F083F91B481B490A9004
:1056980010230991384609A90B93ADF830B013943B
:1056A8001094CDF8388011940F940D94CDF848A03B
:1056B80008F0E6F9384649462A4608F00FFA304617
:1056C80041462A467C6008F0E6FF3046294608F045
:1056D800D5FF0B4804F0AAFF15B0BDE8F08F00BF56
:1056E80000040048004400406C000240244400408C
:1056F800F8210020740C0020F829002028440040DC
:10570800C157000808B5034808F0E5F9024B1860CE
:1057180008BD00BF6C000240740C0020054B064811
:1057280010B51C6808F0D7F9201A48BF00F50060CA
:1057380080B210BD740C00206C000240054B064876
:105748001A68C2F50061013A08BF4FF40062405C74
:105758001A607047740C0020F821002010B5013839
:1057680010F8012F5AB1084B084C198889B26254B5
:105778001A88510501F50012510D1980F0E7BDE8AE
:105788001040FFF7BDBE00BF700C0020F8290020B4
:105798000FB400B5C3B044AB02A853F8042B4FF4C0
:1057A800807101930CF0B8FC02A8FFF7D7FF43B053
:1057B8005DF804EB04B0704782B002AB03E9030064
:1057C80004480099BDF80420BDF8063002B0FFF780
:1057D800DFBF00BFA1C6010870B500239AB28A4294
:1057E8000DD2094AC65C1488084DA4B201332E555F
:1057F8001488640504F50014640D1480EEE7BDE810
:105808007040FFF77DBE00BF700C0020F829002013
:10581800014B1868704700BFAC10002007B501A8FD
:105828000121FDF781FA0028F9D09DF804000EBD8A
:105838002DE9F04106460F46FDF7B0FAE0B1FDF755
:10584800A3FAC8B1C6B1FFF7EFFA00240546BC4277
:1058580012D2FFF7E9FA401B31280DD8391B30194D
:10586800C9B2FDF741FA00EB0408444502D0FFF73E
:10587800DBFA05464446EAE7BDE8F0812DE9F04148
:105888000546FDF78BFA00B3FDF77EFAE8B1E5B1FE
:1058980028460AF0D3FD0746FFF7C6FA0024064655
:1058A800BC4212D2FFF7C0FA801B31280DD8391B31
:1058B8002819C9B2FDF718FA00EB0408444502D0CC
:1058C800FFF7B2FA06464446EAE7BDE8F0810FB4AE
:1058D80000B5C3B044AB02A853F8042BFF210193D1
:1058E8000CF01AFC02A8FFF7C9FF43B05DF804EBFF
:1058F80004B07047F0B585B004AB03E90300BDF808
:105908000C60304604F0E0FEDDED027AB8EE670A7E
:10591800074610EE100AFAF7C1FD0022094BFAF704
:105928003BFF044630460D4604F0D6FE0090BDF815
:105938000E0039460190224603482B46FFF7C7FF61
:1059480005B0F0BD00408F40B5C6010808B5FDF7A9
:105958001FF9FDF777F9FDF78FF907F0E5FC024825
:10596800BDE8084004F062BEFD58000808B5FDF720
:105978000BFA0E490E4A0F4B50B10F4808600F49F9
:105988000F4811600F4A10491A60104B186009E05F
:105998000F4808600F4910481160104A10491A60F2
:1059A8000A4B18600F4A116008BD00BF043200207E
:1059B800F8310020FC3100201958000885580008EB
:1059C80025580008D7580008395800080032002028
:1059D8001954000855540008355400088954000823
:1059E800D1540008E03B0020F8B5002506460F46D4
:1059F8002C460F4B1868804728B90A200135FFF755
:105A080047FAEDB206E00B490A6890473055013471
:105A1800E4B2002524B1331913F8010C3B2803D054
:105A2800042D01D8BC42E4D3002131553046F8BDDD
:105A3800043200200032002030B5002585B001A8CE
:105A48002946092200950AF0FDF82C46174B1868DC
:105A5800804730B90A20FFF71BFA681CC5B2C4B1E9
:105A68000DE013490A68904704AD2B19013414F06E
:105A7800FF0403F8100C01D12546E7E7002504A927
:105A88000A1912F8113C3B2B05D0042D03D80B2C16
:105A980000E0042DDAD904A804190021684604F8A6
:105AA800101C06F099FE05B030BD00BF043200207E
:105AB8000032002038B5134B282505FB0035FFF7C9
:105AC800BBFF85ED010AFFF7B7FF85ED020AFFF777
