:020000040800F2
:1000000000A00020C13100080DC100080FC1000888
:1000100011C1000813C1000815C10008000000004C
:1000200000000000000000000000000017C10008F0
:1000300019C10008000000001BC10008254F00087E
:1000400039320008393200083932000839320008E4
:1000500039320008393200083932000839320008D4
:1000600039320008393200083932000839320008C4
:100070003932000839320008C15500083932000809
:1000800039320008B5580008393200083932000802
:100090001DC1000839320008393200083932000821
:1000A00039320008B5420008DD4A0008AD440008B6
:1000B0003932000839320008393200083932000874
:1000C0003932000839320008393200083932000864
:1000D00039320008B14A000839320008854A000860
:1000E000393200083932000821C1000839320008CD
:1000F0003932000839320008393200083932000834
:10010000000000000000000000000000393200087C
:100110003932000839320008393200083932000813
:100120003932000839320008393200083932000803
:1001300039320008393200080000000000000000D9
:100140003932000839320008393200080000000056
:10015000000000000000000000000000000000009F
:1001600000000000000000003932000839320008A9
:10017000393200080000000000000000000000000C
:08018000000000003932000804
:1001880010B5054C237833B9044810B10448AFF3CF
:1001980000800121217010BDB00B0020000000007C
:1001A8005808020808B5064B1BB106480649AFF3C4
:1001B80000800648016811B1054A02B1904708BDA0
:1001C8000000000058080208B40B0020B00B002003
:1001D8000000000081F0004102E000BF83F000430E
:1001E80030B54FEA41044FEA430594EA050F08BFCA
:1001F80090EA020F1FBF54EA000C55EA020C7FEA8E
:10020800645C7FEA655C00F0E2804FEA5454D4EB0A
:100218005555B8BF6D420CDD2C4480EA020281EAD4
:10022800030382EA000083EA010180EA020281EA0C
:100238000303362D88BF30BD11F0004F4FEA01315E
:100248004FF4801C4CEA113102D0404261EB41016D
:1002580013F0004F4FEA03334CEA133302D05242F3
:1002680063EB430394EA050F00F0A780A4F10104AF
:10027800D5F1200E0DDB02FA0EFC22FA05F28018E9
:1002880041F1000103FA0EF2801843FA05F35941CF
:100298000EE0A5F120050EF1200E012A03FA0EFC4E
:1002A80028BF4CF0020C43FA05F3C01851EBE37178
:1002B80001F0004507D54FF0000EDCF1000C7EEB95
:1002C80000006EEB0101B1F5801F1BD3B1F5001FD3
:1002D8000CD349085FEA30004FEA3C0C04F10104F2
:1002E8004FEA445212F5800F80F09A80BCF1004F1B
:1002F80008BF5FEA500C50F1000041EB045141EA9D
:10030800050130BD5FEA4C0C404141EB010111F49D
:10031800801FA4F10104E9D191F0000F04BF014648
:100328000020B1FA81F308BF2033A3F10B03B3F126
:1003380020020CDA0C3208DD02F1140CC2F10C02B6
:1003480001FA0CF021FA02F10CE002F11402D8BF14
:10035800C2F1200C01FA02F120FA0CFCDCBF41EAE0
:100368000C019040E41AA2BF01EB0451294330BDAF
:100378006FEA04041F3C1CDA0C340EDC04F114048C
:10038800C4F1200220FA04F001FA02F340EA030063
:1003980021FA04F345EA030130BDC4F10C04C4F1A9
:1003A800200220FA02F001FA04F340EA0300294689
:1003B80030BD21FA04F0294630BD94F0000F83F4D3
:1003C800801306BF81F480110134013D4EE77FEAB6
:1003D800645C18BF7FEA655C29D094EA050F08BF02
:1003E80090EA020F05D054EA000C04BF19461046E3
:1003F80030BD91EA030F1EBF0021002030BD5FEA27
:10040800545C05D14000494128BF41F0004130BD4E
:1004180014F580043CBF01F5801130BD01F00045A2
:1004280045F0FE4141F470014FF0000030BD7FEA15
:10043800645C1ABF194610467FEA655C1CBF0B4610
:10044800024650EA013406BF52EA033591EA030F27
:1004580041F4002130BD00BF90F0000F04BF00211F
:10046800704730B54FF4806404F132044FF0000552
:100478004FF0000150E700BF90F0000F04BF0021CB
:10048800704730B54FF4806404F1320410F0004531
:1004980048BF40424FF000013EE700BF42004FEA2C
:1004A800E2014FEA31014FEA02701FBF12F07F43A9
:1004B80093F07F4F81F06051704792F0000F14BFA6
:1004C80093F07F4F704730B54FF4607401F00045EA
:1004D80021F0004120E700BF50EA010208BF704741
:1004E80030B54FF000050AE050EA010208BF704736
:1004F80030B511F0004502D5404261EB41014FF49F
:10050800806404F132045FEA915C3FF4DCAE4FF0A2
:1005180003025FEADC0C18BF03325FEADC0C18BF89
:10052800033202EBDC02C2F1200300FA03FC20FADA
:1005380002F001FA03FE40EA0E0021FA02F1144427
:10054800C1E600BF70B54FF0FF0C4CF4E06C1CEA3C
:1005580011541DBF1CEA135594EA0C0F95EA0C0FB1
:1005680000F0DEF82C4481EA030621EA4C5123EA24
:100578004C5350EA013518BF52EA033541F4801153
:1005880043F4801338D0A0FB02CE4FF00005E1FB06
:1005980002E506F00042E0FB03E54FF00006E1FB50
:1005A80003569CF0000F18BF4EF0010EA4F1FF0493
:1005B800B6F5007F64F5407404D25FEA4E0E6D41D3
:1005C80046EB060642EAC62141EA55514FEAC520E4
:1005D80040EA5E504FEACE2EB4F1FD0C88BFBCF560
:1005E800E06F1ED8BEF1004F08BF5FEA500E50F111
:1005F800000041EB045170BD06F0004646EA0101D7
:1006080040EA020081EA0301B4EB5C04C2BFD4EB08
:100618000C0541EA045170BD41F480114FF0000E01
:10062800013C00F3AB8014F1360FDEBF002001F06F
:10063800004170BDC4F10004203C35DA0C341BDCE9
:1006480004F11404C4F1200500FA05F320FA04F0BB
:1006580001FA05F240EA020001F0004221F00041EF
:1006680010EBD37021FA04F642EB06015EEA430E62
:1006780008BF20EAD37070BDC4F10C04C4F1200592
:1006880000FA04F320FA05F001FA04F240EA020045
:1006980001F0004110EBD37041F100015EEA430E16
:1006A80008BF20EAD37070BDC4F1200500FA05F236
:1006B8004EEA020E20FA04F301FA05F243EA0203B5
:1006C80021FA04F001F0004121FA04F220EA0200C4
:1006D80000EBD3705EEA430E08BF20EAD37070BD0A
:1006E80094F0000F0FD101F00046400041EB0101EA
:1006F80011F4801F08BF013CF7D041EA060195F0CC
:10070800000F18BF704703F00046520043EB030385
:1007180013F4801F08BF013DF7D043EA0603704772
:1007280094EA0C0F0CEA135518BF95EA0C0F0CD07D
:1007380050EA410618BF52EA4306D1D181EA0301C3
:1007480001F000414FF0000070BD50EA410606BFBD
:100758001046194652EA430619D094EA0C0F02D102
:1007680050EA013613D195EA0C0F05D152EA033647
:100778001CBF104619460AD181EA030101F0004165
:1007880041F0FE4141F470014FF0000070BD41F0AE
:10079800FE4141F4780170BD70B54FF0FF0C4CF488
:1007A800E06C1CEA11541DBF1CEA135594EA0C0FA7
:1007B80095EA0C0F00F0A7F8A4EB050481EA030EF4
:1007C80052EA03354FEA013100F088804FEA0333DB
:1007D8004FF0805545EA131343EA12634FEA0222A9
:1007E80045EA111545EA10654FEA00260EF000416A
:1007F8009D4208BF964244F1FD0404F5407402D2BC
:100808005B084FEA3202B61A65EB03055B084FEA4C
:1008180032024FF480104FF4002CB6EB020E75EB49
:10082800030E22BFB61A754640EA0C005B084FEA71
:100838003202B6EB020E75EB030E22BFB61A7546EE
:1008480040EA5C005B084FEA3202B6EB020E75EB39
:10085800030E22BFB61A754640EA9C005B084FEAB1
:100868003202B6EB020E75EB030E22BFB61A7546BE
:1008780040EADC0055EA060E18D04FEA051545EAAD
:1008880016754FEA06164FEAC30343EA52734FEA56
:10089800C2025FEA1C1CC0D111F4801F0BD141EACF
:1008A80000014FF000004FF0004CB6E711F4801F34
:1008B80004BF01430020B4F1FD0C88BFBCF5E06F14
:1008C8003FF6AFAEB5EB030C04BFB6EB020C5FEA24
:1008D800500C50F1000041EB045170BD0EF0004E79
:1008E8004EEA113114EB5C04C2BFD4EB0C0541EAAB
:1008F800045170BD41F480114FF0000E013C90E6A8
:1009080045EA060E8DE60CEA135594EA0C0F08BF6B
:1009180095EA0C0F3FF43BAF94EA0C0F0AD150EA6A
:1009280001347FF434AF95EA0C0F7FF425AF1046FD
:1009380019462CE795EA0C0F06D152EA03353FF425
:10094800FDAE1046194622E750EA410618BF52EAA2
:1009580043067FF4C5AE50EA41047FF40DAF52EA76
:1009680043057FF4EBAE12E74FF0FF3C06E000BF13
:100978004FF0010C02E000BF4FF0010C4DF804CD20
:100988004FEA410C7FEA6C5C4FEA430C18BF7FEAE0
:100998006C5C1BD001B050EA410C0CBF52EA430C0E
:1009A80091EA030F02BF90EA020F0020704710F18E
:1009B800000F91EA030F58BF994208BF90422CBF1D
:1009C800D8176FEAE37040F0010070474FEA410C16
:1009D8007FEA6C5C02D150EA013C07D14FEA430C34
:1009E8007FEA6C5CD6D152EA033CD3D05DF8040BA5
:1009F800704700BF8446104662468C4619466346D7
:100A080000E000BF01B5FFF7B7FF002848BF10F1AD
:100A1800000F01BD4DF808EDFFF7F4FF0CBF0120F2
:100A280000205DF808FB00BF4DF808EDFFF7EAFF6E
:100A380034BF012000205DF808FB00BF4DF808ED29
:100A4800FFF7E0FF94BF012000205DF808FB00BF1E
:100A58004DF808EDFFF7CEFF94BF012000205DF8A8
:100A680008FB00BF4DF808EDFFF7C4FF34BF0120B5
:100A780000205DF808FB00BF4FEA410212F50012A2
:100A880015D211D56FF47873B3EB625212D94FEACD
:100A9800C12343F0004343EA505311F0004F23FAB7
:100AA80002F018BF404270474FF00000704750EA0C
:100AB800013005D111F0004008BF6FF000407047C9
:100AC8004FF00000704700BF4FEA4102B2F1E04327
:100AD80024BFB3F5001CDCF1FE5C0DD901F0004C1D
:100AE8004FEAC0024CEA5070B2F1004F40EB83006D
:100AF80008BF20F00100704711F0804F21D113F199
:100B08003872BCBF01F00040704741F480114FEAD1
:100B18005252C2F11802C2F1200C10FA0CF320FA5A
:100B280002F018BF40F001004FEAC1234FEAD32377
:100B380003FA0CFC40EA0C0023FA02F34FEA4303E1
:100B4800CCE77FEA625307D150EA01331EBF4FF06A
:100B5800FE4040F44000704701F0004040F0FE4085
:100B680040F40000704700BF4BB942B9002908BFE4
:100B7800002802D04FF0FF31084600F037B882B0A5
:100B8800EC462DE9005000F01BF8DDF804E002B057
:100B98000CBC7047F8B5164604460D461F4600F0D3
:100BA80027F806FB01F300FB0737A6FB0023FB1819
:100BB800A21A65EB0303069CC4E90023F8BD00BF35
:100BC800F8B5164604460D461F4600F06FF900FBBF
:100BD80007F7A0FB062306FB0177FB18A21A65EBB3
:100BE8000303069CC4E90023F8BD00BF704700BF9B
:100BF80000292DE9F00F1D46C0F29D800024002D2C
:100C0800C0F2948080460F4694461E46E3BB8A4253
:100C180055D9B2FA82F747B1C7F1200520FA05F68F
:100C280001FA07F1BA403143B840170CB1FBF7F6A7
:100C3800030C1FFA82FC07FB16110CFB06F543EAAE
:100C480001439D4208D9711E9B1880F013819D4273
:100C580040F21081023E9B18591BB1FBF7F507FBC8
:100C6800151380B20CFB05FC40EA03418C4507D9FB
:100C78006B1E8A1880F00081944540F2FD80023D89
:100C880045EA0641002503E08B420CD90025294698
:100C98000A462B4614B1524263EB430310461946E9
:100CA800BDE8F00F7047B3FA83F5002D40F0878058
:100CB8008B4201D38242EAD800250121E8E712B924
:100CC8000126B6FBF2F2B2FA82F6002E39D18E1A5C
:100CD800130C1FFA82FC0125B6FBF3F703FB17611F
:100CE8004FEA10490CFB07F849EA0146B04506D916
:100CF800791EB61802D2B04500F2D3800F46C8EB71
:100D08000606B6FBF3F103FB116380B20CFB01FC92
:100D180040EA03439C4506D94E1E9A1802D29445D0
:100D280000F2C280314641EA0741B1E7E44352424A
:100D380063EB430366E7404261EB41014FF0FF3448
:100D48005DE7B240C6F1200921FA09F720FA09F552
:100D5800130C01FA06F1B7FBF3F845EA01091FFA8B
:100D680082FC03FB18774FEA19410CFB08F541EAAE
:100D78000747B040BD420AD9BF1808F1FF3680F0D6
:100D88008E80BD4240F28B80A8F10208BF18791B03
:100D9800B1FBF3F503FB15171FFA89F90CFB05F6F0
:100DA80049EA07418E4206D96F1E891871D28E42D0
:100DB8006FD9023D89188E1B45EA08458CE7C5F1B5
:100DC800200122FA01F306FA05F61E4327FA01F27A
:100DD8004FEA164907FA05F720FA01F1B2FBF9F8CC
:100DE8000F433B0C1FFA86FA09FB18220AFB08FB83
:100DF80043EA024293450CFA05FC08D9921908F116
:100E0800FF314AD2934548D9A8F102089219CBEB91
:100E18000203B3FBF9F109FB1132BFB20AFB01FA75
:100E280047EA02439A4506D94A1E9B1933D29A4586
:100E380031D902399B1941EA08410F0C1FFA8CF885
:100E480008FB07F68AB24FEA1C4C08FB02F80CFBB9
:100E5800026202EB18420CFB07FC964288BF0CF5B5
:100E6800803CCAEB03030CEB124C63450ED305D050
:100E780000250DE70E46EFE61D4601E71FFA88F844
:100E880000FA05F008EB0245A842F1D20139002525
:100E9800FEE63D468FE71146CDE78846B7E7B04600
:100EA80075E7023FB6182AE702393CE72DE9F00753
:100EB800144605460E46002B3DD18A4249D9B2FA5E
:100EC80082F747B1C7F1200120FA01F206FA07F6C6
:100ED800BC401643BD40220CB6FBF2F02F0CA1B269
:100EE80002FB106601FB00F347EA0646B34208D945
:100EF800471E361980F0F880B34240F2F580023878
:100F08003619F61AB6FBF2F302FB1362ADB201FB17
:100F180003F145EA0242914207D95E1E121980F098
:100F2800E580914240F2E280023B43EA0040002122
:100F3800BDE8F00770478B4243D8B3FA83F4002C1E
:100F480042D18B4202D3824200F2DF80002101208D
:100F5800EEE712B90127B7FBF2F4B4FA84F2002ADB
:100F680040F088800A1B230CA7B20121B2FBF3F6DC
:100F780003FB16224FEA154C07FB06F04CEA024227
:100F8800904207D9121906F1FF3C02D2904200F2B2
:100F9800CE806646121AB2FBF3F003FB1023ADB203
:100FA80007FB00F745EA03439F4207D9421E1B1976
:100FB80080F09E809F4240F29B80023840EA0640C3
:100FC800B6E700210846B3E7C4F1200622FA06F581
:100FD80003FA04F32B434FEA134C21FA06F501FAFE
:100FE80004F120FA06F6B5FBFCF746EA010A1FFAF7
:100FF80083F80CFB17554FEA1A4108FB07F941EA39
:101008000545A94502FA04F203D97E1EED187FD3DF
:101018003746C9EB0501B1FBFCF60CFB16151FFAA8
:101028008AFA08FB06F84AEA0541884503D9751E7D
:10103800C91873D32E4646EA0746370C1FFA82FCB6
:101048000CFB07F5120CB3B20CFB03FC02FB0353B9
:1010580003EB1C4302FB07F29D4288BF02F5803276
:10106800C8EB010102EB134291424BD342D0304608
:1010780000215DE79440C2F1200521FA05F6230C12
:1010880020FA05F701FA02F1B6FBF3FC39430D0C1F
:10109800A7B203FB1C6645EA064607FB0CF8B045F9
:1010A80000FA02F508D936190CF1FF303DD2B045E7
:1010B8003BD9ACF1020C3619C8EB0602B2FBF3F0CF
:1010C80003FB10268AB242EA064207FB00F191426E
:1010D80006D9461E121926D2914224D9023812196D
:1010E800521A40EA0C4141E738460AE733461CE702
:1010F800104663E71FFA8CFC00FA04F00CEB03437C
:101108009842B4D2701E002112E7214620460FE70C
:10111800A9457FF67DAF023FED187AE7884589D962
:10112800023EC91887E73046DAE78446C4E7023E3C
:1011380012192FE770B50821064601200DF0C4FAF0
:10114800044618B90B480EF0EFFD11E00136B60061
:1011580030460EF04FF80546206028B130460EF0B4
:1011680049F80546606018B902480EF0DDFD2C46C6
:10117800204670BDDC95010870B548210546012060
:101188000DF0A2FA044618B914480EF0CDFD22E07D
:101198000135AD0028460EF02DF80646A06258B17C
:1011A80028460EF027F80646E06228B128460EF0D9
:1011B80021F80646206320B908480EF0B5FD3446EC
:1011C80009E028460EF016F80546606318B903488A
:1011D8000EF0AAFD2C46204670BD00BF0D960108F2
:1011E80038B50C21054601200DF06EFA0446681C3E
:1011F800850028460DF0FEFF206028460DF0FAFF16
:10120800606028460DF0F6FFA060204638BD10B596
:101218000446806A18B10DF0F5FF0023A362E06A66
:1012280018B10DF0EFFF0020E062206B18B10DF04F
:10123800E9FF00212163606B18B10DF0E3FF002284
:10124800626320460DF0DEFF012010BD10B5044694
:10125800006818B10DF0D6FF00232360606818B14C
:101268000DF0D0FF0020606020460DF0CBFF01207C
:1012780010BD10B50446006818B10DF0C3FF002377
:101288002360606818B10DF0BDFF00206060A068A1
:1012980018B10DF0B7FF0021A16020460DF0B2FF94
:1012A800012010BD0000000090ED017AD0ED007A19
:1012B80027EE070A07EEA70A836870B5C1ED047A1E
:1012C80081ED057A8B61044610EE100A0E46FFF791
:1012D800E5F841EC100B13F0F1FB51EC100BFFF7A4
:1012E800F3FB94ED021A00EE900A61EE011A40EE4B
:1012F800A01AF06011EE900AFFF7D0F841EC100B3D
:1013080013F0DCFB51EC100BFFF7DEFBB0607069EB
:10131800FFF7C4F8044630690D46FFF7BFF845ECFF
:10132800104B41EC110B13F013FA13A3D3E900236C
:1013380051EC100BFFF706F9FFF7C6FB3060B069F8
:10134800FFF7ACF80446F0680D46FFF7A7F845EC40
:10135800104B41EC110B13F0FBF907A3D3E9002361
:1013680051EC100BFFF7EEF8FFF7AEFB70600120B1
:1013780070BD00BFAFF30080F8C1631ADCA54C4014
:10138800F0B5D0ED056A90ED047A66EEA07A47EEE6
:10139800007A2DED068B90ED038A90ED06AAC7EE34
:1013A800889A064685B04AEE017AD0ED028AB0EEF8
:1013B800419A86ED0E1A87EEA81A80ED0C0A26EEE1
:1013C800800A17EE200A80ED0A1AC0ED0D0AC0ED5A
:1013D8000B9A10EE100AFFF761F81DA3D3E900235A
:1013E800FFF7B0F868EE080A044610EE900A0D46BA
:1013F800FFF754F86AEE299A02460B46204629461A
:10140800FFF7CAF958EE099AFFF75EFB0746306204
:1014180019EE900AFFF742F80DA3D3E90023FFF76E
:1014280091F868EEA88A044618EE900A0D46FFF770
:1014380035F802460B4620462946FFF7ADF9FFF777
:1014480043FBF7637062012005B0BDEC068BF0BD6D
:10145800F8C1631ADCA54C4084B02DE970432DED2A
:10146800068B0CAC84E80F001398179EFFF716F84C
:1014780058A3D3E90023FFF765F841EC100B41ECC2
:10148800180B12F03DFF59EC108BB0EE480AF0EE45
:10149800680A13F029F851EC100BFFF715FBDDED86
:1014A8000F9A08EE100A0C98FEF7F8FF69EE887A92
:1014B800044627EE880A0D4610EE100AFEF7EEFFE6
:1014C80002460B4600204249FEF788FE41EC100B0D
:1014D8009DED149A13F0F2FA204653EC102B29468E
:1014E800FFF75AF9FFF7F0FA49460AEE100A4046A4
:1014F800FFF7EAFA7AEE098A00EE900A1AEE100A65
:1015080068EEA08AFEF7CAFF044619EE900A0D4657
:10151800FEF7C4FF02460B4600202D49FEF75EFE8B
:1015280002460B4620462946FFF70CF8044619EEFA
:10153800100A0D46FEF7B2FF02460B462046294622
:10154800FEF74EFE044618EE100A0D46FEF7A6FFFB
:1015580002460B4620462946FEF7F4FFFFF7B4FA89
:1015680008EE100A28EE081A08EEA81A11EE100A5A
:10157800FEF794FF41EC100B13F0A0FA51EC100B9E
:10158800FFF7A2FA01EE900A88EE218AB06018EE01
:10159800100AFEF783FF41EC100B13F07BF80AA347
:1015A800D3E9002351EC100BFEF7CCFFFFF78CFAC0
:1015B800129B706033600120BDEC068BBDE8704360
:1015C80004B07047AFF30080F8C1631ADCA54C4043
:1015D8000000F03F399D52A246DF913FAFF30080F3
:1015E80084B02DE9F04F2DED048B89B016AC84E85A
:1015F8000F0011EE900A12EE905AB0EE429AB0EE39
:10160800608AFEF74BFFDDED177A38EE670A8046F1
:1016180010EE100A8946FEF741FF2DA3D3E90023F7
:10162800FEF790FFFFF750FAFEF738FF41EC100B7A
:1016380041EC180B12F058FF28465BEC10ABFEF794
:101648002DFFB0EE480AF0EE680A04460D4612F087
:1016580057FE52465B464046494657EC106BFEF72C
:1016680071FF3246CDE900013B4620462946FEF788
:1016780069FF02460B46DDE90001FEF7B1FDFFF701
:1016880023FA1B9B3246986049463B464046FEF784
:1016980059FF524606460F465B4620462946FEF746
:1016A80051FF02460B4630463946FEF797FDFFF7D5
:1016B8000BFA1B9C206084ED019A012009B0BDEC57
:1016C800048BBDE8F04F04B0704700BFAFF3008053
:1016D800399D52A246DF913F84B070B52DED048B41
:1016E80084B00CAC84E80F0010EE100AF0EE419ABA
:1016F8008DED031A8DED010ACDED020AFEF7CEFE3F
:1017080035A3D3E90023FEF71DFF41EC100B41EC94
:10171800180B12F0F5FD51EC100BFFF7D5F9B0EEF0
:10172800480AF0EE680A09EE100A12F0DDFE51ECE4
:10173800100BFFF7C9F99DED111A81EE293A139C98
:10174800129D2168012307EE900A23EE037AA1EC8B
:10175800017AAB4207DC51ED013A23EE834A0133AB
:10176800A1EC014AF5E762684FF07E53136017EE6B
:10177800900AA36819EE106A0021196042F8046FF4
:1017880043F8040F11461C46022004310433A842D2
:1017980019DC13ED010A51ED016A67EE800A59EE72
:1017A800260A013010EE906A42F8046F13ED012A00
:1017B80051ED011A69EE022A47EEA12A12EE906A4B
:1017C80044F8046FE1E7012004B0BDEC048BBDE8E8
:1017D800704004B0704700BF399D52A246DF913F68
:1017E8002DE9F04F2DED048BF0EEC07AB7EE009A9C
:1017F80085B0F4EE497AF1EE10FA02900391B0EE5A
:10180800408A904604D1C7480EF08EFA0020C0E105
:1018180002F1010302F102045C43022094FBF0F19F
:101828004C1C04FA00F420460DF0E4FC834680B119
:1018380020460DF0DFFC814658B120460DF0DAFC59
:10184800824630B14FEA48060136A9F10407002460
:1018580001E0B548D8E7B44213DC08EE904AF8EE48
:10186800E80A013410EE900AFEF718FE41EC100B5E
:1018780013F024F951EC100BFFF726F947F8040F81
:10188800E9E7022309F108011A4643454FDC571CD2
:10189800BE005D005F1E681E00EE903A06EE107AEC
:1018A80008EE900AB8EEE03AF8EEC66AF8EEE87A82
:1018B80086EE831A0BEB06044FEA820E56440BEBB6
:1018C8000E050195D6440D46012087EE835A86ED14
:1018D800001A84ED005A0C4616EE10CA461C043451
:1018E800844500EB02071EDD55ED023A14ED014A6E
:1018F800D4ED001A63EE844A87EEA17ADDF804C0BD
:10190800B0000CEB0007704484EEA10A15ED012A23
:10191800C7EE022A043DC0EE025AC7ED002AC0ED08
:10192800005A3046D8E7BA1C01330431ADE718EE47
:10193800100AFEF7B3FD04460D4622462B4600204A
:101948007A49FEF74BFC002206460F4620462946F8
:10195800764BFEF745FC02460B4630463946FEF705
:10196800F1FD41EC100B13F0A9F8DFED718A029C30
:10197800039D84ED009A51EC100BC5ED008AB8F177
:10198800000F00F00581FFF79FF807EE900A84ED3D
:10199800018AF0EE485A686002230121B7EE000A76
:1019A800434529DCC9188A000BEB0204D4ED006A10
:1019B8000AEB0205D5ED001A28EE261A20EE212A98
:1019C80011EE252AF0EE653A07EE103A48EE423A53
:1019D800F8EEC72A029E039C22EEA34AB018C4EE72
:1019E800274AA218013380ED002AB0EE650AC2ED3D
:1019F800004AF0EE425AD3E789EE287A09F10C0141
:101A080001230022D9ED026A66EEA86A984540F3E0
:101A18009180D1ED005A51ED013A66EEA52A27EEE4
:101A2800277AC2EEA36AD7187A1C029D039C9000FD
:101A38002E182718D018441C03988C4605EE103A27
:101A480026EE874AB8EEC56A86EEA55A0133C4EE7B
:101A5800254A68EE251A03EE903A26EE080AB8EEF3
:101A6800E34A21EE856AC6ED004A60EE240A26EEB6
:101A7800072A68EE044A65EE072A24EE820A12EE67
:101A8800A50A80EEA73A2E46C0EE275AB1EE431AB1
:101A980087ED001AA700ED19C71985ED002A581C13
:101AA800C7ED005A09F10407404539DC2418A500A0
:101AB8000BEB050EDEED000A0AEB050696ED001AA3
:101AC80028EE203A029E65EE011A53EE061A06EB3E
:101AD800050E04EE900A039E0CF1040C75190437E8
:101AE8006646B8EEE40AD6ED002A97ED005A21EED4
:101AF800872A60EE085A62EE853A26EE074A65EEB6
:101B0800820A53EE840A8EED002A80EEA73A3E46FA
:101B18000130B0EE465A85ED003AB0EE616AC3E78F
:101B2800083173E743B90108839801080000F03FC2
:101B38000000000009EBC80393ED006A86EE860AF0
:101B4800B8F1010FACBF424401320132029C039D3F
:101B5800900021182A18584603EE108A27EE277A93
:101B6800B8EEC31A60EE070A21EE488AC1ED000AF2
:101B780068EE201A81EEA72A82ED002A0DF042FBBA
:101B880048460DF03FFB50460DF03CFB012000E0BD
:101B9800404605B0BDEC048BBDE8F08F2DE9F04F51
:101BA8002DED028B002389B04FF07E5AC0F800A0BB
:101BB80080460B6010EE100AB0EE408A019289460A
:101BC800FEF76CFC04460D4622462B460020B04921
:101BD800FEF704FB00220F460646AD4B2046294679
:101BE800FEF7FEFA02460B4630463946FEF7AAFCD7
:101BF80041EC100B12F062FF51EC100BFEF764FF82
:101C0800019A08EE900A0198971C411C4F43022341
:101C180097FBF3F0013000FA03F00DF0EBFA06EE53
:101C280010AA074620B99B480EF07EF8384629E1ED
:101C380001252B46019EB34200F3A3805C1C02944D
:101C48005C1E022003FB04F696FBF0F1CA18511E35
:101C580001FA00F109EB010208EB010A04FB04F1A7
:101C680006910299059201FB03FBAA1E9BFBF0FE5D
:101C78006A4300EE102A0EFA00F2761008EB020012
:101C880009EB02016FF0030202FB0EFBB2009E1E7D
:101C980066430092721096000496002293420FD178
:101CA800DAED001A28EEA12A059E80ED002A9AEDA9
:101CB800003AD6ED002A28EE034A08EEA24A56E07A
:101CC800012B0CD1002A54D1D8ED000A28EE201A95
:101CD80080ED001A99ED007AD8ED007A14E048DD1D
:101CE800944216DC009E00EB0B0C0CEB060E9EEDEE
:101CF800005A68EE055A01EB0B0CC0ED005A664419
:101D080096ED007ADEED007A28EEA74A18EE074A2B
:101D18002DE0069E02FB126607EE906AB8EEC01A26
:101D2800F8EEE70A009EC0EE811A00EB0B0E0EEBF0
:101D3800060C049EB644009EDEED002A9CED002AA7
:101D480021EEA23A18EE023A01EB0B0E80ED003AB2
:101D58007644DCED003AD6ED006A049E28EEA34AEC
:101D680018EE264AB644DEED004A01EEE44A81ED5B
:101D7800004A0132043004319A428FDD0235029B59
:101D880058E787ED006A012601998E4252DC06F178
:101D9800010B0BFB06FC4FEA6C04711E07EB840079
:101DA800714374004A10611E01EE901A07EB82031A
:101DB800D3ED002AB8EEE12A06EE906A22EE223A26
:101DC800F8EEE63A044683EE234A4FF0010A80ED26
:101DD800004A2068FEF762FBBAF1010F14BF012226
:101DE8000222CDE90201CAEB0B0050430AEB0603BD
:101DF80004EE900A05EE903AB8EEE45AB8EEE56AB9
:101E08000AF1010A85EE067A17EE100AFEF746FB7C
:101E180041EC100B12F052FEDDE9020153EC102BDD
:101E2800FEF790FBFEF750FEB24544F8040FD0DDF4
:101E38005E46A9E70123019EB3421FDC5C1C04FB3C
:101E480003F56A10960008EB060009EB0601BD19B8
:101E5800002205EB820690ED007AD6ED007A27EE97
:101E6800270A0132A0EC010AD1ED000A20EEE71A98
:101E78009A42A1EC011AECDD2346DCE738460DF066
:101E8800C1F9012009B0BDEC028BBDE8F08F00BF9D
:101E98000000F03FA5980108C0B52DED028B07465C
:101EA80085B010EE900A0E46FEF7F8FA1FA3D3E9A4
:101EB8000023FEF747FB41EC100B12F015FB51EC29
:101EC800100BFEF701FE102F08EE100A11DDF0EEE0
:101ED800C87A17EE900AFEF7E1FA02460B46002090
:101EE8001149FEF77BF90EA3D3E90023FEF79CFD09
:101EF80038B196E80300B0EE480A3A46FFF74EFEBE
:101F080006E096E80300B0EE480A3A46FFF768FC98
:101F1800003018BF012005B0BDEC028BC0BD00BF6A
:101F2800BBBDD7D9DF7CDB3D0000F03F399D52A215
:101F380046DF913FAFF300802DE9F04F2DED048B84
:101F4800074689B008A800E90E00F96B4A1C900002
:101F58008DED020ACDED030A8DED041A0DF04AF954
:101F6800064620B95C480DF0DFFE3046A8E0169C16
:101F780000230546B7EE008A6360A5EC018A039842
:101F8800FEF78CFA52A3D3E90023FEF7DBFA41EC03
:101F9800100B12F0A9FA51EC100BFEF795FD09EEA3
:101FA800100A0124F86B844200F3868004F10109C9
:101FB8004FEA440A01EE909A00EE90AAB8EEE12AA0
:101FC800B8EEE01A0AF1FF38C1EE022A022109FB35
:101FD80004FB9BFBF1F202F1010B06EE908A07EE7F
:101FE800104AF8EEE67AB8EEC70A28EE278A12EE0B
:101FF800900A88EE008AFEF751FA41EC100B12F0B5
:102008005DFD53EC102B18EE100A8DED010A0093BC
:10201800FEF744FA019A009BFEF794FAFEF754FD86
:10202800012C03EE100A02D1316871601AE0631EB8
:102038005B43AAF1030A581E0AFB08FA04EE100AC9
:1020480008EE90AAB8EEC46AF8EEE88A15ED025ACE
:10205800C6EE284A55ED013A64EE855A59EE235AE0
:10206800C5ED005A3B6B059A07994FEA8B0B02EBBB
:10207800840403EB0B007A6B90ED000A069802EBE0
:102088000B03D3ED000AD0ED017AD1ED016A20EE01
:10209800A71A10EE261AD4ED001AB5EC017A169C90
:1020A80021EE212AD4ED013A62EE072A42EE833A64
:1020B800C4ED013A4C4675E730460DF0A3F801200F
:1020C80009B0BDEC048BBDE8F08F00BFAFF3008012
:1020D800399D52A246DF913FEF970108AFF3008088
:1020E80082B02DE9F04F2DED028B89B00D4614A971
:1020F80081E80C00159B1699179C03930491012302
:1021080000218DED050ACDED060A8DED071AD5F8EB
:102118003CE02B64A160616021600432734577DC88
:102128005E1C06FB03F8022707EE106A98FBF7F817
:10213800049E039F002102910299043704369942B4
:1021480064DC029901EB080C296B4FEA8C0C01EB5B
:102158000C09696B01EB0C0ADAED005A56ED010A1D
:1021680099ED000A57ED016A25EEA01A00EE261A2D
:10217800D2ED001A016821EE212AF8EEC72A01EBF8
:102188000C0BDBED003A22EE223A94ED024A03EE04
:10219800634ADDED026A84ED024A17ED016A9AEDA1
:1021A800008AD9ED004A16ED015A68EE067A54EE17
:1021B800857A92ED000AF8EEE60A67EE805ADBEDC2
:1021C800001A94ED012A25EEA01A416801EE212A91
:1021D8008C4484ED012ADAED003A16ED014AD9ED76
:1021E800002A17ED013A63EE844A42EE834A92EDE3
:1021F800005A9CED006AD4ED007A24EE858A029993
:1022080048EE467A0131C4ED007A94E7013384E759
:102218000698FEF743F91CA3D3E90023FEF792F9C9
:1022280041EC100B12F06CF851EC100BFEF74CFC63
:1022380008EE100AB0EEC86A16EE100AFEF72EF97C
:1022480013A3D3E90023FEF70DFC30B1D4ED017AD6
:1022580087EE888A84ED018A0CE0009414AC284645
:1022680094E80E009DED050ADDED060A9DED071ABE
:10227800FFF762FE012009B0BDEC028BBDE8F04F0C
:1022880002B07047AFF30080399D52A246DF913FFC
:10229800BBBDD7D9DF7CDB3D2DE9F04F2DED048B9D
:1022A800074689B008A800E90E00B96B4A1C9000DF
:1022B8008DED020ACDED030A8DED041A0CF09AFF9C
:1022C800064620B95C480DF02FFD3046A8E0169C64
:1022D80000230546B7EE008A6360A5EC018A0398DF
:1022E800FEF7DCF852A3D3E90023FEF72BF941EC03
:1022F800100B12F0F9F851EC100BFEF7E5FB09EEA4
:10230800100A0124B86B844200F3868004F10109A5
:102318004FEA440A01EE909A00EE90AAB8EEE12A3C
:10232800B8EEE01A0AF1FF38C1EE022A022109FBD1
:1023380004FB9BFBF1F202F1010B06EE908A07EE1B
:10234800104AF8EEE67AB8EEC70A28EE278A12EEA7
:10235800900A88EE008AFEF7A1F841EC100B12F003
:10236800ADFB53EC102B18EE100A8DED010A00930B
:10237800FEF794F8019A009BFEF7E4F8FEF7A4FB39
:10238800012C03EE100A02D1316871601AE0631E55
:102398005B43AAF1030A581E0AFB08FA04EE100A66
:1023A80008EE90AAB8EEC46AF8EEE88A15ED025A6B
:1023B800C6EE284A55ED013A64EE855A59EE235A7D
:1023C800C5ED005ABB6A059A07994FEA8B0B02EBD9
:1023D800840403EB0B00FA6A90ED000A069802EBFE
:1023E8000B03D3ED000AD0ED017AD1ED016A20EE9E
:1023F800A71A10EE261AD4ED001AB5EC017A169C2D
:1024080021EE212AD4ED013A62EE072A42EE833A00
:10241800C4ED013A4C4675E730460CF0F3FE012056
:1024280009B0BDEC048BBDE8F08F00BFAFF30080AE
:10243800399D52A246DF913FC5970108AFF300804E
:1024480082B02DE9F04F2DED028B89B0884614A992
:1024580081E80C00179C159B169DD8F838E003936B
:1024680000218DED050ACDED060A8DED071A0495BC
:10247800A160616021600432012373457BDC5D1C2F
:10248800022605FB03F999FBF6F9002107EE105A1D
:10249800039F049E0291029D043704369D4267DC27
:1024A800029DD8F8281005EB090CD8F82C504FEAF3
:1024B8008C0C05EB0C0ADAED005A56ED010A614462
:1024C80091ED000A57ED016A25EEA01A00EE261AD2
:1024D800D2ED001A056821EE212AF8EEC72A05EB8D
:1024E8000C0BDBED003A22EE223A94ED024A03EEA1
:1024F800634ADDED026A84ED024A17ED016A9AED3E
:10250800008AD1ED004A16ED015A68EE067A54EEBB
:10251800857A92ED000AF8EEE60A67EE805ADBED5E
:10252800001A94ED012A25EEA01AD4ED007A01EEE6
:10253800212A84ED012ADAED003A16ED014AD1ED9F
:10254800002A17ED013A63EE844A42EE834A416855
:1025580092ED005A01EB0C0595ED006A24EE858A90
:10256800029948EE467A4D1CC4ED007A029592E72E
:102578000133043281E70698FDF790FF1CA3D3E9E5
:102588000023FDF7DFFF41EC100B11F0B9FE51EC11
:10259800100BFEF799FA08EE100AB0EEC86A16EEAC
:1025A800100AFDF77BFF14A3D3E90023FEF75AFABC
:1025B80030B1D4ED017A87EE888A84ED018A0CE087
:1025C800009414AC404694E80E009DED050ADDED3C
:1025D800060A9DED071AFFF75FFE012009B0BDEC62
:1025E800028BBDE8F04F02B0704700BFAFF3008028
:1025F800399D52A246DF913FBBBDD7D9DF7CDB3D79
:1026080084B02DE9F04194B01AAC259D269F84E84A
:102618000F00AB6B5A1C981C00FB02F1022691FBC1
:10262800F6F08DED050ACDED060A8DED071AFEF7D9
:1026380081FD0646A86BFEF7D3FDAB6B03900293B2
:102648001EAA044692E803008DE803000DF1680E07
:102658009EE80F009DED050ADDED060A9DED071ABF
:10266800FFF73AF89DED050ADDED060A9DED071A1C
:102678003146A86BFFF710FC08A80190A1680091EB
:1026880094E80C0029469DED050ADDED060A9DED4E
:10269800071A3046FFF7D4FE0EAB0193A2680092EA
:1026A80094E80C0029469DED050ADDED060A9DED2E
:1026B800071A3046FFF714FD249D0DF12C080095EC
:1026C800CDF8048020AD95E80F009DED050ADDEDFD
:1026D800060A9DED071ADDED081A9DED092ADDEDC4
:1026E8000A2AFEF77DFF249911A80190009195E828
:1026F8000F00DDED0E1A9DED0F2ADDED102A9DED80
:10270800050ADDED060A9DED071AFEF769FF394651
:102718004046FEF7C9FD9DED110ADDED120A9DED5B
:10272800131A3846FEF72CFE3046FEF78FFD20467A
:10273800FEF79FFD012014B0BDE8F04104B07047DA
:102748002DE9F04F2DED028B85B004AC04E90F00A4
:10275800109C119D236860682B60E36BA16B686017
:1027680003F1010A0AFB03F00222A96390FBF2F1CC
:1027780001EB030AEB6305F1080004F108019DED84
:10278800038A0DF0A1FDD4F838C00122624553DC5C
:10279800561C022306FB02F797FBF3F000FA03F33B
:1027A80000210F185745D5F82C902FDC676B07EBE5
:1027B8000308E76AD4ED016AFF1898ED007AD7EDAF
:1027C800007A38EE660A276B40EE077A9944C9ED1D
:1027D800007A07EB0309AF6A07EB030BA76AD4ED8E
:1027E800010AFF1897ED002AD9ED001A38EE601A91
:1027F8006F6B01EE212AFF188BED002AD8F800E054
:10280800C7F800E0D9F800802F6B0CE0E76AFF18E2
:10281800D7F8008009EB0307C7F80080A76AFF18FC
:10282800D7F80080AF6AFF18013104339142C7F826
:102838000080B6DD3246A9E7012005B0BDEC028B69
:10284800BDE8F08FF8B55A20FEF796FC244C2549D0
:1028580020600C238363C36341602022224908302F
:102868000DF0C0FD236821499E6ADD6A1C6B586B18
:10287800002232602A602260026000220F6846F857
:10288800047F0432D1F804E0AF18C7F800E0D1F8AB
:1028980008C0A718C7F800C0D1F80CE08718103195
:1028A800B2F5B47FC7F800E0E8D193ED017AF1EE14
:1028B800047A37EE270A5B2083ED110AFEF75CFCE9
:1028C8000B4B0C4918600C4A0C480D4B01604260D8
:1028D80083600C490C4A0D4B0161C2604361F8BD2D
:1028E800C80F00200040FB44C095010860BD0108E6
:1028F800E80E00201951C74505A6C645401000201E
:10290800D4BA5B3B3191A73D815DDB3B9A19C74542
:1029180008B5054B1868FEF77AFC04480068BDE85E
:102928000840FEF774BC00BFC80F0020E80E002066
:102938002DE9F04F8BB0FFF785FF724BDFF8188257
:10294800DFF8189293F83340188E93F83210C9F8CC
:102958000000D3ED016A93ED022AD3ED000ADFED02
:102968006A7AB8EEE67AF8EEC22A9FED683AB8EECF
:10297800E01A27EE270A61EE271A62EE833A002250
:10298800C8ED011AC8ED023AC8F81020C9F80410B9
:10299800C9F8084088ED000A03F0E8F989ED030A50
:1029A80003F0E4F988ED020A03F0E0F988ED010A82
:1029B80003F0DCF988ED000A45460FCD02AE0FC6DC
:1029C8002F68534C3760534EDFF894B1079604F1E3
:1029D800100A9AE803008DE8030094E80F00FEF758
:1029E8003BFD4D4BDBF800001A680190009247460A
:1029F80099E80F00FFF7A4FE0FCF96ED000AD6ED79
:102A0800010A96ED021A02AE0FC62968434F3160DB
:102A1800DBF80050424E0795424D08959AE80300AE
:102A28008DE8030094E80F00FFF7EAFD3C683046A4
:102A3800A047D9F80C003C4CFDF730FD02460B4688
:102A48003A4821688847D8F80800FDF727FD02466C
:102A58000B46374821688847D8F80400FDF71EFD63
:102A680002460B46334821688847D8F80000FDF72E
:102A780015FD02460B463048216888473B683046BA
:102A880098472869FDF70AFD02460B462B4821683E
:102A980088476869FDF702FD02460B462848216809
:102AA8008847A869FDF7FAFC02460B4625482168C5
:102AB8008847E868FDF7F2FC02460B462248216881
:102AC8008847A868FDF7EAFC02460B461F482168BC
:102AD80088476868FDF7E2FC02460B461C482168F7
:102AE80088472868FDF7DAFC0B4602462168194832
:102AF80088473A68304690470BB0BDE8F04FFFF77B
:102B080007BF00BFD438002095BFD633BD37863500
:102B180040100020E40F0020C80F0020E4340020FB
:102B28002BAD0108F00F0020E834002000C3010895
:102B38000FC301081EC301082DC301083CC30108C7
:102B48004BC301085AC3010869C3010878C30108C7
:102B580087C3010896C30108D00F00203010002059
:102B6800E80E002010B50131002393420ED0040F67
:102B7800092C01D8303400E0373401F8014C013316
:102B88000024000101F8024BDBB2EEE710BD0000A3
:102B9800F7B5012001460BF0EBF901214FF40030A5
:102BA8000BF0DAF901244FF4805500260327694613
:102BB8004FF0904000958DF805708DF804408DF821
:102BC80006408DF807600AF0CFFF29464FF0904085
:102BD8000BF017F8C82002F0F3FA29464FF090409E
:102BE8000BF00DF821464FF400300BF0B5F9022038
:102BF8004FF4C0538DF8040069464FF0904000939D
:102C08008DF805708DF806608DF807600AF0ACFF46
:102C18000B210E224FF090400AF0F5FF0C210E22F6
:102C28004FF090400AF0EFFF12200AF091FF04489D
:102C3800122108220160427184710AF005FFFEBD6D
:102C48006410002008B500200BF080F94FF4000054
:102C58000121BDE808400BF097B90000044B054876
:102C68009A7A0AB1052100E00121016009F058BAF9
:102C78006C3C0020D00B002013B54FF4A0600AF084
:102C8800D9FF022014238DF805000021012401A892
:102C98008DF804308DF806108DF807400AF0D4FF3F
:102CA8002A2201A88DF804208DF805400AF0CCFFEF
:102CB8001CBD7047094B10B593E814000833186819
:102CC80010180AD008220649FFF74CFF054920468C
:102CD8000422BDE81040FFF745BF10BDACF7FF1F49
:102CE80002000020120000200E4B10B50C46196897
:102CF800A9B9202C01D884B100E020242246C021A3
:102D08000AF098FB012021460AF09EFC054802685B
:102D1800A318036001200AF005FC204610BD00201E
:102D280010BD00BF60100020144B70B51A680C4627
:102D38009142134988BF1C680D780023A34206D22C
:102D48001049CE18725DC2540133DBB2F6E70B4866
:102D580005682E1B0A4D06602B780668E2182A7053
:102D68004EB9032040210AF07DFC03204FF4405166
:102D78000AF0BBFB2E70204670BD00BFAC100020CF
:102D8800CC0B00206C100020034B1868411F4A42EE
:102D980052EB0100704700BFD00B0020024B1868AF
:102DA800003018BF01207047D00B0020014B0022D3
:102DB8001A6070476010002008B503200AF070FC04
:102DC800054B18601A6805484FF4887192B2BDE83F
:102DD80008400AF046BB00BFAC1000206C10002071
:102DE800254B264A196888B2254910B510801488E1
:102DF8000888044004F4007294B23CB14FF6FF51C5
:102E08001960204B1A78541CE1B219701B4B1A88B0
:102E1800104000F4004081B21C4609B10AF044FA9F
:102E2800174B22881888104000F480618AB232B1AA
:102E3800114B15494FF6FF3018604A6890470F4A02
:102E48000F4B10881B88184000F4005188B218B145
:102E580009494DF6FF7008601288134003F4805347
:102E680098B240B1044A4EF6FF7100201160BDE8E7
:102E7800104000F04FB910BD445C0040B010002075
:102E8800903C0020CD0B00205C000020034B987A7A
:102E980010B1034905220A60704700BF6C3C00204E
:102EA800D00B0020014B04221A607047D00B002081
:102EB800034B1A78202A01D100201870704700BFF0
:102EC800CE0B002070470000212810B508D111480A
:102ED8000368197801F07F02212A11D0022010BD61
:102EE8002028FBD10B4B19680A780B4902F07F03A5
:102EF8000A4A212B0CBF0B46002310700BB9EDE7D3
:102F0800074B044C2068002483614482204698477C
:102F1800204610BD8C3C0020792F0008CE0B0020E5
:102F2800612F0008074B19680A7802F07F03212BEC
:102F380005D1022801D1002070472228FBD00220A9
:102F4800704700BF8C3C002009B10220704701285F
:102F5800FBD808467047000020B9034B19680822BF
:102F68000A827047014870478C3C0020D800002036
:102F780020B9034B196808220A8270470148704734
:102F88008C3C0020D8000020054B1968CA78042A18
:102F980004D8044B03EBC20109F004BF00207047BA
:102FA8008C3C0020B8000020014909F0FBBE00BF9E
:102FB80054000020014909F0F5BE00BFB000002010
:102FC800334A344BD179186810B5002441728472A1
:102FD800C47220460AF058FA20464FF400710AF0ED
:102FE8005BFA102120460AF063FA402120460AF0D5
:102FF800FFFA802120460AF0EBFA20460AF0B4FADC
:10300800254B204693F82C100AF02CFB20460AF09A
:103018009AFA012021460AF03FFA0120C0210AF05D
:10302800D7FA012020210AF043FA012021460AF0AC
:103038005CFA02204FF4C0610AF02EFA02204FF425
:1030480080710AF0C5FA022021460AF04EFA0220E1
:1030580020210AF02DFA032021460AF01DFA032048
:103068004FF488710AF0C4FA032040210AF0FAFAF2
:1030780003204FF440510AF038FA032021460AF0A1
:1030880017FA20460AF0A2F8044A0120106010BD81
:1030980013C401088C3C00205C000020D00B0020E9
:1030A80010B5FFF707FE054B18680024847200F07E
:1030B80009F80AF00BFB02490C6010BD8C3C00209B
:1030C800D00B002008B50120FFF7F3FD064B074998
:1030D800012200201A601860086005494FF4E05288
:1030E8000A801A6008BD00BF405C0040445C004094
:1030F800903C002010B5064C22684FF6FB73134035
:103108002360FFF7ABFD4FF43640206010BD00BFD1
:10311800405C0040254B072810B518BF18701A7876
:10312800224C052A3ED8DFE802F0030D1317202BA6
:103138001F4A116819B9FFF7DDFF062000E00520D6
:10314800207010BDFFF7D6FF04202070012226E072
:1031580002215970032226E05978481EC2B25A70DB
:103168005B780BBB0422114B1DE0124B1A6891B21D
:1031780041F0100018600A2205232370627010BD08
:103188005878411ECAB25A705A786AB9094908680B
:103198004FF6EF73034005480B6006210170044B9E
:1031A8001A6010BD06221A7010BD00BFB4100020AE
:1031B800D40B0020405C00401548164902680060A6
:1031C8008A4200F01F80002100F004B8124B5B58BF
:1031D800435004311148124B42189A42FFF4F6AF9B
:1031E800104A00F003B8002342F8043B0E4B9A4201
:1031F800FFF4F9AF08F094FF0BF03EFF07F0D4FEA0
:10320800FFF7FEBF0948D0F800D04068004700002B
:10321800FC9F0020EFBEADDE8408020800000020FD
:10322800B00B0020B00B00209C3C002000D8FF1FF2
:10323800FFF7FEBF10B508212148224C01F000FE1F
:1032480021484FF480410AF0DCFCC3211C4801F0FE
:10325800CBFD00211A4801F0C7FD00216070184815
:1032680001F0C2FD00212070154801F0BDFD0021CC
:103278006071134801F0B8FD00212071104801F079
:10328800B3FD0021E0700E4801F0AEFD4FF480411F
:10329800A0700D480AF0B3FCB4F9003013F5805F54
:1032A8000BD0B4F9020010F5805F06D0B4F9041011
:1032B80011F5805018BF012010BD002010BD00BFBF
:1032C80000380040E41000200008004838B5734872
:1032D800082101F0B5FD72484FF480410AF091FCD5
:1032E80000216E4801F080FDF1216C4801F07CFD61
:1032F8004FF480416A480AF082FC322001F060FFF6
:1033080067484FF480410AF07CFC0121634801F0D2
:103318006BFD2021614801F067FD61484FF4804151
:103328000AF06DFC322001F04BFF5E4B00221A6060
:103338005A609A6000245A484FF480410AF061FCB0
:103348000221564801F050FD0121544801F04CFD7E
:1033580053484FF480410AF052FC322001F030FF0C
:10336800012001F02DFF4E484FF480410AF049FC3E
:1033780089214A4801F038FD0021484801F034FD10
:103388004FF48041054646480AF039FC002DE7D045
:10339800FFF750FF80B3444B4248B3F90010B3F92C
:1033A8000220B3F9043007EE101A01EE902A04EE59
:1033B800103AB8EEC70ADFED3D7AB8EEE12AF8EE2A
:1033C800C44A9FED3B5AC7EE800AC7EE822AC5EE73
:1033D800245AD0ED006A90ED013A90ED026A36EE7B
:1033E800A01A73EE223A36EE257A80ED001AC0ED67
:1033F800013A80ED027A01E0013CE4B20134E4B222
:10340800092C98D9274890ED000A90ED011AD0EDC3
:10341800022AF2EE047AC0EE270A4FF48041C1EE88
:10342800271A82EEA73AF0EEE06AB0EEE12AF0EE53
:10343800C33AC0ED006A80ED012AC0ED023A18488F
:103448000AF0DFFB0021154801F0CEFCF0211348FB
:1034580001F0CAFC4FF4804111480AF0D0FB322039
:1034680001F0AEFE0E484FF480410AF0CAFB02217B
:103478000A4801F0B9FC0021084801F0B5FC4FF4F6
:10348800804107480AF0BBFB322001F099FEFFF7A4
:10349800D1FE3220BDE8384001F092BE003800402D
:1034A80000080048EC100020E4100020CD0C9E44D9
:1034B8006726934470B52F4C2F4E304D204602217D
:1034C80001F0BEFC30464FF400410AF09AFBBB21E4
:1034D800204601F089FC0021204601F085FC0021EE
:1034E8006870204601F080FC00212870204601F019
:1034F8007BFC0021E870204601F076FC0021A870D2
:10350800204601F071FC00216871204601F06CFC36
:1035180000212871204601F067FC194D00216870D0
:10352800204601F061FC00212870204601F05CFC77
:10353800144D00216870204601F056FC00212870C7
:10354800204601F051FC0021E870204601F04CFCB7
:103558000021A870204601F047FC00216871204630
:1035680001F042FC4FF4004128713046BDE870403C
:103578000AF045BB0038004000080048141100203C
:103588000411002050110020224B234AB3F90000F7
:10359800224B234907EE900A9FED227AB8EEE70AFC
:1035A8009FED211AC0EE070A2048D3ED016A70EE9C
:1035B800811A93ED042AD3ED022A93ED053AD3ED4F
:1035C800033A93ED064AD3ED074A93ED0A5AD3ED31
:1035D800085A93ED0B6AD3ED097A93ED0C0A01EEC4
:1035E800A62A01EEA23A01EEA34A01EEA45A01EE80
:1035F800A56A01EEA70AC1ED001A82ED002A82ED44
:10360800013A82ED024A80ED005A80ED016A80EDB0
:10361800020A704704110020080C002054380020CA
:10362800281100200000AA4300000C4208110020C5
:1036380010B55B4886B000230122009301930293E2
:10364800039304930593027041F28834FFF732FF25
:10365800FFF79AFF534A544BB2F90010B2F902002F
:10366800B2F9042001EE900A04EE102AD3ED012AE3
:1036780093ED025A06EE901AB8EEE12A4B49F8EE9D
:10368800C44AD3ED007A9FED4A7A32EE623A74EE7C
:10369800C55AB8EEE60ADDED013A9DED026AB1F9C8
:1036A8000030B1F90200B1F9042070EE670A43EE68
:1036B800073A05EE876A9DED001A06EE903A01EE8C
:1036C800900A3C4B04EE902A00EE871AB8EEE60A00
:1036D800D3ED007AB8EEE12AD3ED012AB8EEE45A28
:1036E800D3ED025A70EE670A9DED037ADDED056AA7
:1036F800CDED013A8DED026ADDED043A32EE623A23
:1037080035EE656A8DED001A33EE834A37EE201ADE
:1037180036EE860A013C4FF47A70A4B28DED031A96
:103728008DED044A8DED050A01F02EFD002C8DD19A
:10373800234600A9C818D0ED000ADFED1F7A80EEF5
:10374800A77A06A91D4A9A1880ED007AC81810EDC4
:10375800031AC1EE271A04330C2BC2ED001AE8D164
:10376800DDED012A9DED002A62EEA23A42EE023A10
:103778009DED023A43EE033A13EE900AFCF78EFEF3
:1037880041EC100B11F09AF951EC100BFDF79CF974
:103798000B4A106002480021017006B010BD00BF3E
:1037A800F40B002014110020080C002050110020F8
:1037B80057E79C3A0811002000409C45381100202A
:1037C800E400002038B55A4C5A4D2046802101F0BB
:1037D80037FB28464FF400410AF013FA6B212046C4
:1037E80001F002FB8021204601F0FEFA28464FF442
:1037F80000410AF004FA962001F0E2FC28464FF452
:1038080000410AF0FEF96B21204601F0EDFA032190
:10381800204601F0E9FA28464FF400410AF0EFF992
:10382800012001F0B1FC28464FF400410AF0E9F903
:103838006A21204601F0D8FA1021204601F0D4FA76
:1038480028464FF400410AF0DAF9012001F09CFC07
:1038580028464FF400410AF0D4F96C21204601F0C3
:10386800C3FA0021204601F0BFFA28464FF4004170
:103878000AF0C5F9012001F087FC28464FF4004101
:103888000AF0BFF91921204601F0AEFA00212046BE
:1038980001F0AAFA28464FF400410AF0B0F90120D5
:1038A80001F072FC28464FF400410AF0AAF91A21E7
:1038B800204601F099FA204B204693F85C1001F05D
:1038C80093FA28464FF400410AF099F9012001F0D3
:1038D8005BFC28464FF400410AF093F91C2120466E
:1038E80001F082FA0821204601F07EFA28464FF4BA
:1038F80000410AF084F9012001F046FC28464FF403
:1039080000410AF07EF91B21204601F06DFA1021D2
:10391800204601F069FA28464FF400410AF06FF991
:10392800642001F04DFCBDE83840FFF781BE00BFC0
:1039380000380040000800485438002070B51B4C7F
:103948001B4D1C4E2046022101F07AFA28464FF4FE
:1039580000510AF056F90021204601F045FA0021ED
:10396800204601F041FA0021B070204601F03CFAEF
:1039780000217070204601F037FA4FF40051307082
:1039880028460AF03CF9012001F0FEFB28464FF4D6
:1039980000510AF036F94821204601F025FA284658
:1039A8004FF40051BDE870400AF029B900380040D2
:1039B800000800488811002070B51B4C1B4D1C4E98
:1039C8002046022101F03CFA28464FF400510AF043
:1039D80018F90021204601F007FA0021204601F0DD
:1039E80003FA0021B070204601F0FEF90021707042
:1039F800204601F0F9F94FF40051307028460AF0DA
:103A0800FEF8012001F0C0FB28464FF400510AF0EF
:103A1800F8F85821204601F0E7F928464FF40051FC
:103A2800BDE870400AF0EBB80038004000080048D4
:103A38006C110020094B0A491A880B6809491002C1
:103A48001A1A09480B88026082FB0323D20D42EA46
:103A58004320064B00F5FA61196070477811002081
:103A68007411002064110020681100207C110020CE
:103A78002DE9F8434C494D4B0E6818884C4A86FB93
:103A880000011488C50945EA4160CB114FEA044892
:103A98004849494C0A88258818EB00084FF0000966
:103AA80049EB0309E80386FB0245230A43EA05625A
:103AB8002C12424DD5F800E00021801841EB04019A
:103AC800BEF5FA6F31DA76434FEAE67CAEF5FA6670
:103AD8007643F3179A00B400A41942EA967545EBA9
:103AE8000305A3086F104FEA340643EA8572AB104A
:103AF800334DAE450EDA0EF2DC5464430725C5FBA0
:103B080004670B2584FB05456D104FEA3404121930
:103B180043EB0503294CCCEB0E052560B8EB0608F2
:103B280069EB0709801A61EB0301264A1368A3FBB6
:103B3800004503FB0155610D6B1541EAC522B2EB47
:103B4800080863EB09094FEAD83040EA494207EE12
:103B5800902A9FED1D0AB8EEE77AC7EE000A10EE2C
:103B6800900AFCF79BFC9FED0C1B41EC100B10F02E
:103B7800F1FD002053EC102B1449FCF72FFB08A390
:103B8800D3E90023FCF7DEFCFCF79EFF104BD8635B
:103B9800BDE8F883AFF30080000000C0955BC83F24
:103BA8000000000040A5E5406811002066110020D3
:103BB800701100208C110020841100207C1100203D
:103BC80024FAFFFF8011002080E6C5470000F03F7F
:103BD800C8390020AFF3008070B56D4C6D4D6E4E46
:103BE8002046022101F02CF928464FF400510AF032
:103BF80008F81E21204601F0F7F8032001F0E0FA4A
:103C080028464FF4005109F0FAFF012001F0BCFAF0
:103C180028464FF4005109F0F4FFA221204601F094
:103C2800E3F80021204601F0DFF8002170702046FB
:103C380001F0DAF84FF400513070284609F0DFFF40
:103C4800012001F0A1FA28464FF4005109F0D9FFEC
:103C5800A421204601F0C8F80021204601F0C4F84C
:103C68004E4E00217070204601F0BEF84FF400510E
:103C78003070284609F0C3FF012001F085FA284674
:103C88004FF4005109F0BDFF2046A62101F0ACF821
:103C98000021204601F0A8F8414E0021707020460E
:103CA80001F0A2F84FF400513070284609F0A7FF40
:103CB800012001F069FA28464FF4005109F0A1FFEC
:103CC800A821204601F090F80021204601F08CF848
:103CD800344E00217070204601F086F84FF40051F0
:103CE8003070284609F08BFF012001F04DFA284674
:103CF8004FF4005109F085FFAA21204601F074F81D
:103D08000021204601F070F8274E002170702046EF
:103D180001F06AF84FF400513070284609F06FFF3F
:103D2800012001F031FA28464FF4005109F069FFEB
:103D3800AC21204601F058F80021204601F054F843
:103D48001A4E00217070204601F04EF84FF40051D1
:103D58003070284609F053FF012001F015FA284673
:103D68004FF4005109F04DFF5821204601F03CF86E
:103D78004FF40051284609F042FF0A2001F020FACA
:103D8800FFF7DCFD0A20BDE8704001F019BA00BF5A
:103D980000380040000800488411002070110020FD
:103DA8008C11002066110020781100206411002079
:103DB80030B5294B294A93F85D402949013C002335
:103DC8004FF07E50032C32D8DFE804F03102112185
:103DD800244D136051609360D16013615361936106
:103DE800D36111622B606860AB60E8601DE01D4D17
:103DF800106053609360D360116153619361D36124
:103E0800116229606B60AB60EB6028611EE0154DA4
:103E1800136050609360D060136153619361D36104
:103E280011622B606960AB60E9602B610EE00D4D9B
:103E3800116053609360D360106153619361D361E3
:103E4800116228606B60AB60EB6029616B61AB61EC
:103E5800EB61296230BD00BF54380020B411002046
:103E6800000080BF9011002070B586B000230C229E
:103E7800019302930393049205931D461348144E2D
:103E88002958144806AC043544F8181D69460AF048
:103E980039FB1C21336810489847322001F090F90B
:103EA800142DEBD14FF4164269460A4800920AF0E5
:103EB80029FB33680948D92198470949094A00204C
:103EC80008701368984706B070BD00BFE001002075
:103ED8004014002000440040C1010020E8000020F8
:103EE800531400204C14002010B5344B18780128C6
:103EF80063D133490A78022A0AD1324A324B906890
:103F080051681860D068126959609860DA6010BD0D
:103F1800032A08D12B4A2C4B1079517983F82900B0
:103F280083F82A1010BD042A06D1264A264B908908
:103F380051899886D98610BD062A06D1214B224977
:103F480093F82F0081F8280010BD122A0ED11D4ABF
:103F58001D4B516890681961D16858619961106961
:103F680051699269D86119625A6210BD212A0CD12F
:103F78001448154B02688189DA62827BC07B1986F6
:103F880083F8322083F8330010BD302A15D10D4A4A
:103F98000D4B1079002183F83800013381420CD091
:103FA800147A83F83840547A83F86A4012F80C4F30
:103FB800013183F89C40C9B2EFE710BD44140020DA
:103FC80050140020DC110020D4380020F8B53D4BF7
:103FD80018688047002507462E46BD4270D03A49EA
:103FE8003A4C0A68904703462078082865D8DFE8E5
:103FF80000F005090D15222F3D555B00B52B5CD14E
:10400800012359E0622B56D1022355E0304A31484A
:104018003149137003700B7003234DE02D482F4A6C
:10402800017813705B182C4ADBB2037010781918EA
:10403800117004212FE02748294A017813705B1872
:10404800254ADBB20370107819181170052122E097
:10405800244A002010701F481F4A01785B18DBB201
:104068000370107819181170062114E0194A107895
:104078001918C9B21170184A107809181170194A1C
:104088001948117843544B1CD9B21170144A10784E
:10409800884212D807210D4B19700EE00D4801789F
:1040A800994208D1082307E00B490A789A4202D1BD
:1040B800FFF71AFF0126002323700135ADB28CE704
:1040C8003046F8BD3C14002048140020531400204A
:1040D80044140020451400205114002050140020DE
:1040E800D811002052140020DC11002030B54FF404
:1040F800D8709BB009F01AFF564809F0EDFB5648F6
:10410800564B10900821ADF8481020204FF400516C
:10411800002480220F934FF480754FF4806317902A
:1041280018914C4814920FA916931595119413944D
:10413800199409F049FC4748012109F065FC032559
:10414800302202234FF09040694600928DF80530E6
:104158008DF804508DF806408DF8074009F004FDED
:1041680001213F4809F027FB0A2001F029F83C48C3
:10417800214609F015FB3A4809F00DFB384809F0CB
:1041880017FB04460028F9D10A2001F019F8022586
:104198003348029402A9039404948DF818400595B5
:1041A80009F0C2FA4FF400500790089409940A9451
:1041B8000B940C940D942A48082407A98DF83840CC
:1041C80009F094FA01210A462548062309F000FB64
:1041D800234801212A46062309F0FAFA204801213A
:1041E8000322062309F0F4FA1D48012104220623BC
:1041F80009F0EEFA1A4829460522062309F0E8FADA
:10420800062213461648294609F0E2FA14482946B8
:104218000722062309F0DCFA11482946224606231C
:1042280009F0D6FA0E48012109F0ACFA0C48012130
:1042380009F04CFB0028F9D00221094809F03EFB9F
:104248000748012109F031FB054809F029FB1BB09B
:1042580030BD00BF08040240160C00204001005089
:1042680000010050074B59881A8888189988DB88FC
:1042780011FA80F013FA80F291B200EE101ABBEE38
:10428800CF0A7047160C0020074B59891A898818DD
:104298009989DB8911FA80F013FA80F291B200EE65
:1042A800101ABBEECF0A7047160C002070B51E4CD2
:1042B800022120460AF017F90128064633D1204684
:1042C8000AF07AF8022185B220460AF016F9174B4F
:1042D800174A1878194670B91E70206A15804FF66B
:1042E800FE7303402362216A4FF6F5720A4042F0DA
:1042F8000300206270BD13880E489D4201D9ED1A53
:1043080001E0DA4355190023058007480B70016A5C
:104318004FF6FE720A400262036A4FF6F5711940C1
:1043280041F00102026270BD004401402A0C0020E5
:10433800280C0020260C0020F0B5284D284B294ECB
:104348008BB000240122284604211C8009F05BFC64
:1043580010200321022702908DF80D10284602A98B
:1043680001258DF80C708DF80E408DF80F7009F04E
:10437800FBFB192201A88DF804208DF805708DF833
:1043880006408DF8075009F05FFC4FF6FF70472391
:10439800089007A93046ADF81C30ADF81E40ADF8BE
:1043A80024408DF8264009F0E1FE304604A9ADF816
:1043B8001040ADF81240ADF81450ADF81640ADF805
:1043C80018400AF020F8304639462A460AF07EF8A6
:1043D8003046294609F014FF0BB0F0BD0004004830
:1043E800260C002000440140074B188800EE100AF4
:1043F800DFED067AF8EE400AB1EE0C1A20EEA70AB5
:10440800DFED030A07F010BF260C0020F5C8343989
:1044180000000000884206D250F8042B92FAA2F25B
:10442800014B1A60F6E770470030024070B5064647
:104438000D4640200121094C09F08EFD0123A3609F
:1044480000BF00BF00BF00BF30462946FFF7E2FFAC
:10445800206890FAA0F1C84370BD00BF0030024048
:1044680013B50F4C0120032100224FF4A0538DF8FF
:1044780004008DF805102046694600938DF8062043
:104488008DF8072009F070FB20464FF4806109F091
:10449800B8FB20464FF4805109F0B1FB1CBD00BFAA
:1044A8000004004838B5022119480AF01CF8012810
:1044B800044609D1174D184B2A8815481A8009F067
:1044C8007BFF288015480470022111480AF015F86E
:1044D8001049114B0A881888111A8BB241F21852E8
:1044E80093420F4A02D90023137038BDA3F2DD505E
:1044F80080B240F6B631884205D81278072A9CBFA8
:10450800084921F81230064B1878411C197038BD3B
:10451800002C0140400C00203C0C0020430C0020E3
:104528003E0C00202C0C002070B500208AB02D4ACB
:10453800431C40F6B83122F81010D8B20728F6D933
:10454800294C0321022620708DF80D10002402A9A1
:104558004FF480754FF0904002958DF80C608DF8FF
:104568000E408DF80F4009F0FFFA082106224FF09F
:10457800904009F048FB01251B2201A88DF8042072
:104588008DF805608DF806408DF8075009F05CFB42
:104598004FF6FF71232308911448ADF81C3007A982
:1045A800ADF81E40ADF824408DF8264009F0DEFD38
:1045B80004A90E48ADF81040ADF81240ADF81450FB
:1045C800ADF81640ADF8184009F01DFF3146074810
:1045D8002A4609F07BFF0548294609F011FE0AB072
:1045E80070BD00BF2C0C002054140020002C01408A
:1045F800014B33F8100070472C0C00202DE9F041D6
:104608008AB0CF230024022503264FF09040694644
:1046180000938DF805608DF804508DF806408DF8EC
:10462800074009F0A1FA4FF090402146012209F015
:10463800EAFA01210A464FF0904009F0E4FA4FF0F7
:1046480090402946092209F0DEFA31464FF09040A1
:10465800092209F0D8FA3E4FDFF800814FF0904068
:1046680006212A4609F0CFFA4FF0904007212A4642
:1046780009F0C9FA788CADF8104098FBF0F18AB2CD
:10468800531E23264FF0804002A90393ADF808601B
:10469800ADF80A408DF8124009F068FD2D4802A9CE
:1046A80009F064FD70214FF4FA624FF4807301261B
:1046B80005914FF0804005A90792ADF82430ADF878
:1046C8001860ADF81A40ADF82050ADF82240ADF8AA
:1046D800264009F0A1FD4FF0804005A909F0DAFD58
:1046E8001C4805A909F098FD1A4805A909F0D2FD4A
:1046F8004FF08040314609F083FD1648314609F0F5
:104708007FFD1448314609F0D8FE97F83C0060B99F
:10471800B7F84410D7ED137A98FBF1F2BCEEE70A2C
:1047280093B2581E8DED070A039002A90A4809F0B2
:104738001DFD05A9084809F06FFD05A9064809F0FF
:10474800A9FD0548012109F05BFD0AB0BDE8F0812B
:10475800AC350020004001400004004080841E0069
:10476800024B53F820000160704700BF58C401088D
:10477800F0B5344D8BB0032000244FF4707302263B
:104788008DF805006946284600938DF804608DF879
:1047980006408DF8074009F0E7F928460621324619
:1047A80009F031FA28460721324609F02CFA284642
:1047B8000821324609F027FA28460921324609F02D
:1047C80022FA2149214A8F8CADF8104092FBF7F369
:1047D80098B2451E03951E4DADF80A402321ADF849
:1047E8000810284602A98DF8124009F0BFFC4FF4C2
:1047F8008070702240F6B8330127ADF8240005A96F
:10480800284605920793ADF81870ADF81A40ADF830
:104818002060ADF82240ADF8264009F0FDFC28469E
:1048280005A909F037FD284605A909F069FD2846BC
:1048380005A909F099FD2846394609F0E1FC0BB0B5
:10484800F0BD00BF00040048AC35002080841E0085
:1048580000080040024B53F820000160704700BF79
:1048680070C4010848F20100002105F043BF48F276
:104878000300002105F03EBFF0B5284B2849187801
:10488800284A294C0D7811882378C600361A2748FB
:10489800002204781046B04228DA254901EB40038B
:1048A800998915B1012D1DD109E0C1F383230B2B83
:1048B80002D90F2B12D116E04FEA815C05E0C1F353
:1048C800C3230B2BF5D84FEA415C4FEA5C5707F539
:1048D800FA6C184F013227F813C0D2B29C4238BF85
:1048E8001C4600E00F230130C0B2D4E70D4D2980EB
:1048F8000D490B70104B0D491A70104B0C709442F7
:1049080018700F4807DA0F4B012101701868BDE8CD
:10491800F04008F071B800220270F0BD460C00208B
:10492800440C00206014002086140020470C00204E
:10493800F40100206A140020681400205414002098
:10494800430C002058140020024B00229A72FFF7F3
:1049580093BF00BFF401002038B50C46497823788E
:10496800D1F1010138BF0021012B0D4602D0A378F7
:1049780083B941B90020462120706170A070E070B1
:104988002071A07138BD02B1000220810123A370FB
:10499800032321E019B10122227046231CE0012BD8
:1049A80011D12E4B32B1218942182D48228101782C
:1049B800197006E02B4AC0F3001100F003001170D3
:1049C80018700223E3E7022B08D1E27860710AB974
:1049D800C109A1710323A370637038BD032B10D1E3
:1049E8006370A172E378A1790225A57003EBC10574
:1049F800691A657904EB410140EA05200133888191
:104A0800E370E17806291ED92079431C1348D9B2EE
:104A180003782171994203D101210020A1722071EC
:104A28003AB91049104A08780D4910700B700F4AAE
:104A380000E00F4A106807F0DFFF00234620A3704C
:104A4800E370A37160700B4A917A11B90A4B987A96
:104A580018B1BDE83840FFF777BF38BD450C0020D6
:104A6800460C0020420C0020440C00205C1400205E
:104A780064140020F40100201C020020084808B536
:104A880003689A060BD5C1698B0608D509F0A3FD02
:104A98000449C0B20022BDE80840FFF75DBF08BD69
:104AA80000480040F4010020084808B503689B0648
:104AB8000BD5C169890608D509F08DFD0449C0B236
:104AC8000122BDE80840FFF747BF08BD0038014094
:104AD8001C02002008B50548012109F000FD044B1F
:104AE8005A780AB1501E587008BD00BF00480140EE
:104AF800F4010020F0B53D483D4B8DB00124002560
:104B08001A2102270470472668461C708DF8001089
:104B18008DF802508DF801708DF8034009F094F873
:104B2800ADF80C60334EADF81450102363223046B4
:104B380003A9ADF80E3004928DF8165009F016FB53
:104B480022463046214609F0C1FC3046214609F08C
:104B5800C6FC2146304609F053FB274E8DF802501B
:104B680027208DF8000068468DF801708DF8034005
:104B780009F06AF830460B21072209F044F84FF48F
:104B8800006103220191304601A98DF809208DF8B2
:104B98000A508DF808708DF80B4008F0E5FF07956E
:104BA800089509950B95154D04204FF4E1330A90AB
:104BB80006A92846069309F0A5FC2246284610496E
:104BC80009F015FD2846214609F0FCFC23464FF460
:104BD8007A710C4A0C4807F0C9FE4FF47A710B4AF7
:104BE8000B48234607F0C2FE0DB0F0BD1C020020A2
:104BF800F40100200048014000040048004800403B
:104C0800050105006D4800085C140020774800087D
:104C180058140020014B33F8100070476A14002024
:104C280073B5032301254FF4807600244FF090409C
:104C380069468DF8053000968DF804408DF80650C9
:104C48008DF8075008F090FF4FF09040314608F07B
:104C5800D0FFA84228D04FF4006614488DF80640CB
:104C680069468DF8074000968DF8045008F07CFFDF
:104C78000E48314608F0C3FF3C2000F0A1FA052495
:104C88004FF40061094808F0BCFF782000F07CFA76
:104C980006484FF4006108F0B2FF013C782000F0AC
:104CA80073FA14F0FF04EBD17CBD00BF0004004888
:104CB8002DE9F043494B984289B0054640F08A8077
:104CC8004FF48020012109F047F945480D210522BC
:104CD80008F099FF42480E21052208F094FF0522AA
:104CE8003F480F2108F08FFF4FF4604000244FF039
:104CF8000408019002274FF0030939488DF808701D
:104D080001A901268DF809908DF80A408DF80B400D
:104D180008F02AFF0DEB08013148CDF804808DF822
:104D280008608DF809908DF80A408DF80B6008F03E
:104D38001BFF41462A4808F062FF4FF48048294883
:104D4800CDF8048001A908F00FFF4146254808F076
:104D580056FF4FF400482348CDF8048001A908F015
:104D680003FF41461F4808F04AFF4FF400581D480A
:104D7800CDF8048001A908F0F7FE4146194808F06B
:104D88003EFF284609F02CF94FF4827107204FF4B2
:104D9800E0624FF40073ADF80E10ADF81C0003A9E3
:104DA8002846ADF81020ADF81630ADF80C40ADF837
:104DB8001270ADF81460ADF81840ADF81A4009F05B
:104DC80041F928464FF4805109F08CF928463146BC
:104DD80009F07CF909B0BDE8F08300BF0038004055
:104DE800000400480008004870B504460E4641F229
:104DF80001052046022109F084F920B9681E85B210
:104E0800002DF6D10EE02046314609F076F941F240
:104E180001052046012109F074F950B9013DADB2F0
:104E2800002DF6D1054B19884A1C90B21880C0B2E3
:104E380070BD2046BDE8704009F061B9480C0020FB
:104E480038B505460C46002109F040F92B88102C8E
:104E580099B22CD009D8042C1DD0082C21D0022CB2
:104E680036D121F0380081B232E0402C25D007D865
:104E7800202C2DD121F038018AB242F0200127E000
:104E8800802C20D0B4F5807F22D121F0380398B24D
:104E980040F038011CE021F0380398B240F00801D6
:104EA80016E021F038018AB242F0100110E021F03A
:104EB800380293B243F018010AE021F0380081B2B9
:104EC80041F0280104E021F0380293B243F03001A8
:104ED800298028460121BDE8384009F0F7B80000CC
:104EE80010B50A4A52E8003F09490A480C680068A8
:104EF80042E800310029F4D1074A1168201AB0FBB2
:104F0800F1F24FF47A7101FB032010BD500C002020
:104F1800041000E05C0C0020580C0020F8B5704B21
:104F280070481A68704902600B685A1C0A6007F0DA
:104F38003DFD6E480278012A40F0D0806C490B781C
:104F4800002B40F0CB806B480178002940F0C680E8
:104F5800694B1878002840F0C18068490B78002B0D
:104F680040F0BC8066480178002940F0B780654C65
:104F780025886E1CB7B2B7F57A7F94BF2780228048
:104F8800FFF7AEFF604B614F1A68614E61490446F6
:104F9800801A08601C60FEF78DFAB6F900003D68BB
:104FA800B6F902107A682B185518B6F90420BE68AD
:104FB8007D60594D3B60B318BB602F68574BC719CC
:104FC80068682F600E18A96818686E6002EB010EF9
:104FD800534AC5F808E0B2F9005041195868B2F9C7
:104FE800025019604119B2F904009A685960111801
:104FF8009960444B1A8812F0010307D00A20B2FBCB
:10500800F0F100FB112293B2A3B12AE04548012533
:1050180005703E4944485D58DFF838C11D500025E9
:105028005D503E4958585D5043F80C0004330C2B32
:10503800EFD1E3E73D49384A4E603D4E3D481360A5
:105048005360936033780F6001250570C1F808E05C
:105058001BB9FEF773FC357003E0FEF7ADFC36486C
:10506800057028490B881422B3FBF2F002FB1031BB
:105078008AB212B93149012008700133642293FBC6
:10508800F2F002FB103119B9FEF7D4F82C4B187066
:105098001C4A10886423B0FBF3F103FB110293B29E
:1050A80013B9284A01211170C823B0FBF3F103FB9F
:1050B800110293B213B9244A012111704FF47A7383
:1050C800B0FBF3F103FB110082B212B91F4B0121AF
:1050D8001970FFF705FF1E4A001B1060F8BD00BFDE
:1050E800041000E05C0C0020500C00204A0C00204A
:1050F8007E0C0020040C00207F0C0020800C002077
:10510800F40B0020620C0020BC140020E80B0020E7
:105118001411002098140020DC0B0020F80B00204C
:10512800501100204B0C0020581100204411002081
:10513800140C0020550C0020150C00204D0C0020EC
:10514800D90B0020610C0020600C0020540C0020BA
:10515800881400202C110020014B1868704700BFEC
:10516800500C002008B5074B596A11F0E05F0CBFDE
:105178004FF480400120090E05F0BCFABDE8084054
:1051880008F026BF0010024010B50B4B1A68002328
:10519800094909688A1AD318084A1468B3FBF4F451
:1051A800844207D21268001BB3FBF2F402FB1433EB
:1051B8000A46EDE710BD00BF041000E0580C0020BF
:1051C80010B504462CB14FF47A70FFF7DDFF013CAF
:1051D800F8E710BD30B591B001A808F069FD019B52
:1051E800924A9349934CB3FBF2F00860E568924BFE
:1051F80045F08072E2601868904C40F00101196037
:1052080025684FF47A72B5FBF2F3581EB0F1807F2F
:1052180009D28B4C8B4D6060F0210022072385F862
:105228002310A260236001214FF0805008F094FE03
:105238000120014608F090FE0220012108F08CFEB2
:1052480001214FF4003008F087FE01214FF480203F
:1052580008F082FE01214FF4002008F07DFE0121B4
:105268004FF4804008F090FE01214FF4006008F0F0
:105278007FFE0120014608F087FE0220012108F088
:1052880083FE0420012108F07FFE1020012108F090
:105298007BFE2020012108F077FE4FF480300121A9
:1052A80008F066FE01214FF4003008F061FE01218C
:1052B8004FF4802008F05CFE01214FF4804008F094
:1052C80057FE01214FF4003008F05EFE01214FF433
:1052D800802008F059FE5C48FFF7EAFC002004F043
:1052E800D3FE002005F034F804F0F0FD04F042FF8E
:1052F8005648047E012C01D1FFF792FCFFF732FFDC
:105308004FF4A06008F096FC514D5249524A534B55
:1053180029601A605248534C5349544D544A554BCE
:1053280020602960544855491A60554C554B564AD7
:10533800564D1A602060296006F0ECFB544D00F0D1
:105348009FFCFFF78DF800F04BF900F0C3FA4FF41B
:105358008051504808F053FC42F21070FFF730FFBC
:1053680000F09EFC2C684C48A0472A684B484C49E2
:1053780090474C484C4B01681C6811F4003F14BF1F
:105388004A484B48A04701A808F092FC274C0299CC
:105398002A684848B1FBF4F19047039A2B684648BD
:1053A800B2FBF4F1984704992B684448B1FBF4F137
:1053B8009847019B2A684248B3FBF4F19047234879
:1053C800394A017E136809B93E4800E03E489847CB
:1053D800FEF74AFD42F21070FFF7F2FEFEF786FE76
:1053E800FEF7AAFFFFF7C4F91848017E012902D188
:1053F800FFF780FB01E0FFF797F800F077F804F07B
:1054080057FA05F0FBF906F013FA06F0A5FD214856
:105418004FF4805108F0F5FBFEF7CAFCFEF7D2F90D
:10542800FDF754FFFEF7D8FB11B030BD40420F0026
:10543800580C0020F0ED00E0001000E00803002008
:1054480010E000E000ED00E000380040AC3500203E
:105458004C140020415A0008595A00083C140020F6
:10546800155B000840140020795A000848140020F1
:105478004D570008C439002089570008BD57000857
:10548800C0390020A839002069570008A439002035
:10549800E83400200004004880C40108D1C4010891
:1054A8000BC5010800100240E43400200FC50108B4
:1054B80033C501085EC5010871C5010883C5010827
:1054C80095C50108A8C50108C1C5010810B1034A5E
:1054D800034B1A6003480449C8607047EFBEADDE4D
:1054E800FC9F00200400FA0500ED00E030B5124DE5
:1054F800124C85B0002123204FF6FF73ADF804004D
:10550800ADF80C10ADF806108DF80E10284601A95C
:10551800029308F02BFE204601A908F027FE284632
:105528004FF47A6108F068FE204644F6206108F0DE
:1055380063FE05B030BD00BF0010004000140040FD
:1055480010B5184B187801282BD0174A174B11881B
:1055580088B2198889B2884223D01C881448154912
:1055680010FA84F4CC60108884B2188880B284421F
:1055780008D914881888A4B280B2201A4860128802
:1055880091B205E01A8890B2C0F500624A60002125
:1055980019800848034B01211970BDE8104008F034
:1055A80033BA10BD6C0C0020640C00206E0C002077
:1055B800E41C00204400024008B54FF4005008F0F5
:1055C80039FA0548002108F01FFA044B00221A7026
:1055D800BDE80840FFF7B4BF440002406C0C00204F
:1055E8002DE9F04F95B0032000244FF400730125F6
:1055F80007224FF002098DF8090009214FF0904069
:1056080001938DF808908DF80A408DF80B5008F03A
:10561800FAFA01A94FF0904008F0A6FA4FF4806119
:10562800072201914FF090400A2108F0ECFA01A9F5
:105638004FF0904008F098FA4FF4E1360E22684691
:105648008DF800200C278DF801508DF802408DF858
:10565800035008F0F9FA0396324E07970DEB07014D
:10566800314F0494304605940694089408F04AFF94
:10567800384608F031F92D492D4B099120204FF07B
:1056880080084FF4006B11904FF4805A384609A9EE
:105698000A93ADF830B00B9413941094CDF8388079
:1056A8000F940D94CDF848A008F08EF93846294695
:1056B80008F0AAF940212A46304608F090FF3846FB
:1056C80008F0ADF91B4A143F1060384608F004F999
:1056D80019481A490A9010230991384609A90B93C9
:1056E800ADF830B013941094CDF8388011940F941D
:1056F8000D94CDF848A008F067F9384649462A467F
:1057080008F090F9304641462A467C6008F067FF69
:105718003046294608F056FF094805F007F815B045
:10572800BDE8F08F0038014058000240243801409D
:10573800E4140020680C0020E41C002028380140F4
:10574800E557000808B5044808F069F9034B1968DB
:10575800401A18BF012008BD58000240680C0020FC
:10576800054B06481A68C2F50061013A08BF4FF4B4
:105778000062405C1A607047680C0020E414002046
:1057880010B5013810F8012F5AB1084B084C198888
:1057980089B262541A88510501F50012510D198019
:1057A800F0E7BDE81040FFF7CBBE00BF640C002057
:1057B800E41C00200FB400B5C3B044AB02A853F8F2
:1057C800042B4FF4807101930CF04AFC02A8FFF7F8
:1057D800D7FF43B05DF804EB04B0704782B002AB6A
:1057E80003E9030004480099BDF80420BDF8063019
:1057F80002B0FFF7DFBF00BFE9C5010870B500239D
:105808009AB28A420DD2094AC65C1488084DA4B2DD
:1058180001332E551488640504F50014640D1480B2
:10582800EEE7BDE87040FFF78BBE00BF640C0020B8
:10583800E41C002010B5184B187801282BD0174A03
:10584800174B118888B2198889B2884223D01C88DE
:105858001448154910FA84F4CC60108884B218886A
:1058680080B2844208D914881888A4B280B2201A59
:105878004860128891B205E01A8890B2C0F50062BB
:105888004A60002119800848034B01211970BDE8BE
:10589800104008F0B9B810BD780C0020700C00203A
:1058A8007A0C0020E42C00208000024008B54FF05C
:1058B800007008F0BFF80548002108F0A5F8044B6F
:1058C80000221A70BDE80840FFF7B4BF800002400C
:1058D800780C00202DE9F04F4E4E95B00024082397
:1058E8000125032107224FF00209304601938DF864
:1058F80009108DF808908DF80A408DF80B5008F0C3
:1059080082F9304601A908F02FF94FF40040072228
:1059180001900F214FF0904008F075F901A94FF060
:10592800904008F021F93C4E8DF8015011210C27C8
:1059380068468DF800108DF802408DF8035008F085
:1059480083F90DEB07010797344F04944FF416526F
:105958003046039205940694089408F0D3FD38461F
:1059680007F0BAFF2E492F4B099120204FF08008ED
:105978004FF4006B11904FF4805A384609A90A93E6
:10598800ADF830B00B9413941094CDF838800F9480
:105998000D94CDF848A008F017F83846294608F0C5
:1059A80033F840212A46304608F019FE384608F0F8
:1059B80036F81D4A14371060384607F08DFF1B482B
:1059C8001B490A9010230991384609A90B93ADF891
:1059D80030B013941094CDF8388011940F940D942E
:1059E800CDF848A007F0F0FF384649462A4608F0A7
:1059F80019F8304641462A467C6008F0F0FD3046EA
:105A0800294608F0DFFD0B4804F090FE15B0BDE80C
:105A1800F08F00BF00040048004400406C000240C2
:105A280024440040E4240020740C0020E42C0020CE
:105A380028440040F55A000808B5034807F0EFFF6E
:105A4800024B186008BD00BF6C000240740C0020B7
:105A5800054B064810B51C6807F0E1FF201A48BF3F
:105A680000F5006080B210BD740C00206C0002408C
:105A7800054B06481A68C2F50061013A08BF4FF4A1
:105A88000062405C1A607047740C0020E424002017
:105A980010B5013810F8012F5AB1084B084C198875
:105AA80089B262541A88510501F50012510D198006
:105AB800F0E7BDE81040FFF7BDBE00BF700C002046
:105AC800E42C00200FB400B5C3B044AB02A853F8CF
